:020000040800F2
:10000000901A0020090100081101000813010008DE
:100010001501000817010008190100080000000080
:100020000000000000000000000000001B010008AC
:100030001D010008000000001F0100082101000848
:10004000230100081104000823010008230100080F
:1000500023010008230100082301000851010008C2
:1000600023010008230100082301000823010008E0
:1000700023010008230100082301000823010008D0
:1000800023010008230100082301000823010008C0
:1000900023010008230100082301000823010008B0
:1000A00023010008230100082301000823010008A0
:1000B0002301000823010008230100082301000890
:1000C0002301000823010008230100082301000880
:1000D0002301000823010008230100082301000870
:1000E000230100082301000823010008DFF80CD0D9
:1000F00000F01CF800480047E90D0008901A0020A5
:1001000080F308887047000006488047064800478B
:10011000FEE7FEE7FEE7FEE7FEE7FEE7FEE7FEE7B7
:10012000FEE7FEE7E1090008ED000008064C074D78
:1001300006E0E06840F0010394E8070098471034B7
:10014000AC42F6D3FFF7D6FF301E0008501E000861
:100150007047000030B51A498379026853B30B68C1
:1001600093430B600A1D13680468A343136002796C
:100170000A441368046823431360114A0832136861
:100180000468A3431360131D1C680568AC431C601E
:100190004479102C05D021440A68006802430A60A3
:1001A00030BD11680468214311601968006801437B
:1001B000196030BD0079084401689143016030BD89
:1001C000000401400149C86070470000002002405F
:1001D00070B505464FF43026304600F067F8042825
:1001E00011D1094C206940F002002061656120694D
:1001F00040F040002061304600F058F8216941F697
:10020000FD721140216170BD0020024008490420A8
:10021000CA68D20701D001207047CA68520701D5C9
:1002200002207047C968C906FBD50320704700004B
:10023000002002400248016941F0800101617047DD
:10024000002002402DE9F841064600204FF40057F7
:1002500000900D46384600F029F8042816D10C4CC1
:10026000206940F0010020613580B846384600F032
:100270001DF8BF1E042806D1B61C280C009630803D
:10028000404600F013F8216939402161BDE8F8814A
:100290000020024003480249416003494160704721
:1002A0002301674500200240AB89EFCD00B503462E
:1002B000FFF7ACFF03E000BFFFF7A8FF5B1E0128BC
:1002C00003D0002B00D1052000BD002BF4D1FAE7AC
:1002D00010B58A0721F003040649130F21440F22A9
:1002E0008C689A4094438C608A68984002438A6084
:1002F00010BD000000000140F0B5CA78002502F0F2
:100300000F03D20601D58A7813430A784FF00F0EF7
:1003100012F0FF0F4FF001021CD004680F8802FAA0
:1003200005F63740B74211D14FEA850C0EFA0CF7AB
:1003300024EA070703FA0CF43C43CF78282F02D0B5
:10034000482F02D002E0466100E006616D1C082DD6
:10035000E4D304600C88FF2C1ED944685FF00006CB
:1003600006F1080702FA07F50F882F40AF420FD1B8
:100370004FEA860C0EFA0CF7BC4303FA0CF73C4329
:10038000CF78282F00D14561CF78482F00D1056163
:10039000761C082EE4D34460F0BD0000F0B5144C88
:1003A000002801DAE36900E06368420D120185B2BA
:1003B000C0F301579540C0F30346032F05D0C20296
:1003C0000AD50322B240934307E023F070626368CA
:1003D00023F07063636002E0AB4343F0706201B1ED
:1003E0002A43002801DAE261F0BD6260F0BD00003E
:1003F000000001404161704701617047034A0146B6
:100400000020D2680A4200D001207047003000402E
:1004100070470000044A0029516901D0014300E0FF
:10042000814351617047000000100240044A0029D6
:10043000D16901D0014300E08143D16170470000E0
:1004400000100240044A0029916901D0014300E0F4
:1004500081439161704700000010024030B5224A8C
:100460005168224B11F00C0103D0042903D0082954
:1004700003D0036016E01E4913E05168536801F48D
:1004800070114FF0020413F4803F04EB914104D04B
:1004900053689B0303D5174B02E0174B00E0144B46
:1004A0005943016051680F2303EA1111134B5C5C3F
:1004B0000168E14041605468072505EA14241C5D89
:1004C00021FA04F48460546805EAD4241B5DD94001
:1004D000C1605268032303EA9232084B1B1F9A5CE7
:1004E000B1FBF2F1016130BD0010024000127A0050
:1004F0000050C30000A8610000093D000F0000206B
:100500000246002053090949012B0BD0022B0BD0C6
:10051000D1F8241002F01F02012393400B4200D0B7
:10052000012070470968F5E7096AF3E70010024007
:10053000034A516821F0F001014351607047000007
:1005400000100240014908607047000080044242E8
:10055000034A516821F4E061014351607047000093
:100560000010024003494A6822F4605242EAC00087
:1005700048607047001002400FB45E4A2DE9F04118
:1005800002F10A049DF8186060785B4900256FF05D
:100590000F0300F00300362E32D2DFE806F03126DA
:1005A0004550335C1EA529A5315E661B22696C6E21
:1005B0007174777A7D89973131313131313131310F
:1005C000313131313131313131313131313131311B
:1005D0009A9DA7A9107800F00100BDE8F0015DF830
:1005E00014FB1078C0F34000F7E700F08FFF7BE0CA
:1005F0000799C9B2052905D0062907D0072908D0CF
:100600001846EAE7052000F0B3FF6DE001F06CF852
:100610006AE000F0F1FF072000F0AAFF00F0E4FF1D
:1006200034480C3885705FE00798F8B1407810289E
:1006300002D96FF00500D0E7A078087254E007985F
:10064000A0B10078202802D96FF00600C5E76079D4
:10065000C008487248E02078BFE70798C4B200F0AD
:1006600055FF204600F044FF3EE00798AFF30080BE
:100670000798A07338E0A07BAFE700F089FEACE7F5
:100680000798608130E0B4F90A00A6E70798A081D6
:100690002AE0B4F90C00A0E70798C5B200F036FFD5
:1006A000607800F00301284600F086FE00200AE092
:1006B0000798C5B200F02AFF607800F003012846D1
:1006C00000F07AFE012000F0D1FF0DE000F038FECE
:1006D00083E74FF4105080E70798C0B2A52802D0F6
:1006E0005A2800D05A20E073002076E7E07B74E7B8
:1006F000012072E72E0000208416002010B520B1E2
:10070000014610221A4800F01BFC00F009FD1948B0
:10071000016841F002010160164914390A6822F0AB
:1007200002020A600A1D136823F0020313600268C4
:1007300042F020020260086820F0200008600C4CA3
:10074000207800F035FD002810D12078422801D310
:1007500000202070607800F00300022803D000F031
:1007600079FE002802D100F0D1FE002010BD00006B
:1007700038000020140401402DE9FE4F804601217D
:100780000D20FFF75FFE0325102480268DF8025010
:10079000DFF870B120278DF803405B484FF4004923
:1007A0004FF0020AB8F1000FADF8006069466FD053
:1007B000FFF7A2FDDFF8508108F11408C8F80060C7
:1007C0008DF802508DF80340ADF800406946584658
:1007D000FFF792FD4B48103004608DF802508DF801
:1007E00003400424ADF8004069464748FFF784FD04
:1007F000C8F800408DF8025048248DF80340ADF849
:10080000009069464048FFF777FD8DF802508DF85B
:100810000340ADF8006069465846FFF76DFD8DF85E
:1008200002508DF803405646ADF800A069463648A0
:10083000FFF762FD01210846FFF74AFD4FF000086F
:1008400001968DF808804FF008098DF8099001266F
:100850008DF80A6001A8FFF77DFC8DF802508DF835
:100860000340ADF8007069465846FFF745FD052185
:100870000020FFF72DFD8DF808808DF80990019775
:100880008DF80A6001A8FFF765FCBDE8FE8FFFE761
:10089000FFF732FD1C4810300660ADF80040694695
:1008A0005846FFF729FD174D14352C604FF004080A
:1008B000ADF8008069461448FFF71EFD124C143451
:1008C000C4F80080ADF8009069460F48FFF714FDAA
:1008D000C4F80090ADF8006069465846FFF70CFD7B
:1008E0002E60ADF8007069465846FFF705FD2F6091
:1008F0005546ADF800A069460348FFF7FDFC2560AA
:10090000C3E7000000080140000C0140044900B5A5
:10091000497801F0030100F04FFD002000BD000008
:100920003800002005210820FFF726BE0149887302
:1009300070470000380000200CB5002126480191C6
:100940000091026842F4803202604FF6FF72036841
:1009500003F400330093019B5B1C0193009B13B9CC
:10096000019B9342F3D10268920333D50121009198
:100970001A490A6842F010020A600A6822F003026B
:100980000A600A6842F002020A60416841604168F8
:100990004160416841F480614160416821F47C110B
:1009A0004160416841F450214160016841F080712B
:1009B000016001688901FCD5416821F003014160B3
:1009C000416841F0020141604168C1F3810102299F
:1009D000FAD10CBD00910CBD001002400020024075
:1009E0000F4810B5016841F00101016041680D4AEE
:1009F0001140416001680C4A11400160016821F416
:100A000080210160416821F4FE0141604FF41F0123
:100A10008160FFF791FF05494FF00060086010BD4D
:100A2000001002400000FFF8FFFFF6FE08ED00E0B6
:100A30000A0A01219140C943018070470029818938
:100A400002D041F4005101E021F40051818170474E
:100A50000246002012880A4200D00120704730B5BB
:100A600001F01F0201240025C1F3421304FA02F22F
:100A7000012B0FD0022B0FD0838A4FEA112100885F
:100A8000134204FA01F400EA040001D000B1012588
:100A9000284630BD8389F0E7038AEEE710B5C1F33D
:100AA000421301F01F040121A140012B07D0022BAA
:100AB00007D01430002A026805D00A4304E00C3045
:100AC000F8E71030F6E78A43026010BD30B50446FF
:100AD000008A85B00D464CF6FF710840E988014355
:100AE0002182A1894EF6F3100140A8882A8910437B
:100AF0006A890A431043A081A08A4FF6FF4108404B
:100B0000A9890143A1826846FFF7A8FC19488442DD
:100B100001D1039800E00298A189090400EBC0010B
:100B200001EB0010296801D5490000E08900B0FB05
:100B3000F1F06422B0FBF2F109010B096FF0180526
:100B40006B4300EB8300A3891D044FF0320306D5ED
:100B500003EBC000B0FBF2F000F0070005E003EB90
:100B60000010B0FBF2F000F00F000843208105B048
:100B700030BD00000038014002E008C8121F08C163
:100B8000002AFAD170477047002001E001C1121F0E
:100B9000002AFBD170470000064C20680649084037
:100BA000B0F1005F04D12068FFF7AAFA60688047BF
:100BB000FEE70000002000080000FE2F70B505468B
:100BC00000244FF47A7604E0304600F005F8641C07
:100BD000A4B2AC42F8D370BD0CB50021ADF8001042
:100BE00012E000BFADF8041005E000BFBDF804201E
:100BF000521CADF80420BDF80420022AF5D3BDF83C
:100C00000020521CADF80020BDF800208242E9D33C
:100C10000CBD00000149084400F046B800E001089E
:100C200070210820AFF3008070B50C460546FFF731
:100C300031FB3420FFF7C6FA4FF000660BE000BF2F
:100C400006EB8520FFF7C4FA2020FFF7BBFA6D1CE6
:100C5000641EADB2A4B2002CF2D1FFF7EBFA002073
:100C600070BD704770B50E460D4901EBC0150D48BB
:100C7000854201D9012070BD80223146284600F00E
:100C800027F80024281900F00FF8315D884201D0C0
:100C9000032070BD641CE4B2802CF3D3002070BD2F
:100CA00000200008FFDF010800F0030108B520F074
:100CB000030000688DF80000020A8DF80120020C84
:100CC0008DF80220000E8DF803001DF8010008BD0C
:100CD000F8B50646042017460D4600248DF800009E
:100CE000FFF7D8FA3420FFF76DFA11E02878D5F82D
:100CF000011040EA01213046FFF7A4FA8DF8000008
:100D00009DF80000042805D1241D2D1DE4B2361DD8
:100D1000BC42EBD32020FFF755FAFFF78BFA9DF882
:100D20000000042801D00420F8BD0020F8BD000018
:100D3000F8B502208DF802001024284E8DF80340EB
:100D400041F60D15ADF8005069463046FFF7D4FA6C
:100D500029463046FFF74EFB04258DF8035040F23C
:100D60000220ADF8000069463046FFF7C5FA8DF85D
:100D7000034043F220301A4FADF800006946384670
:100D8000FFF7BAFA4FF491513846FFF733FB4FF4AF
:100D900004513846FFF730FB8DF803501120ADF8B1
:100DA000000069463846FFF7A7FA01210D48FFF712
:100DB000F5FAE002ADF8000014248DF8034069460E
:100DC0003046FFF799FA0820ADF800008DF803408F
:100DD00069463846FFF790FAF8BD00000008014068
:100DE000000C01400002300086B072B60020FFF710
:100DF0009FFB4FF48060FFF7ABFB0020FFF7B2FBD7
:100E000001217D20FFF71EFB62B601214020FFF784
:100E100001FB00F0E1FE6846FFF720FB3E49009829
:100E200088420BD2BFF34F8F3C4801683C4A01F423
:100E3000E06111430160BFF34F8FFEE7FFF778FFDA
:100E400000F0F0FE00F0F8FEDFF8D8804AF6AA269F
:100E5000C8F8006000F050FF122000F0A7FF324CED
:100E6000002565604FF03C0BDFF8C090DFF8C0A0B4
:100E70004FF4D27718E000BF00F0DFFEA0B1606849
:100E8000401C60606168B1FBFBF20BFB121058B9AB
:100E9000D9F8001081F00801C9F80010DAF8001044
:100EA00081F40041CAF800106068B842E4D900F04B
:100EB000F1FD204F5A2815D087F8005000F006FDAC
:100EC00065601B494FF4004008310860474640F216
:100ED000EE283E60616841450ED300F0DBFD5A28E4
:100EE00008D009E01448FFF7DFFE3870134800F01F
:100EF000ADFEE3E7FFF750FE60680A3060600F4820
:100F000000F04AFD20708A28E3D30C4800F0E4FD8D
:100F10000028DED06560DCE70090D0030CED00E037
:100F20000400FA0500300040000000200C0C0140D5
:100F30000C0801400A00002008210008D8150020F4
:100F400004E000BF11F8013B00F8013B521E92B2D1
:100F5000F8D27047F0B513490A6822F070420A606F
:100F60000A6842F040520A600E4E00220C36341DD0
:100F70004FF400450423070601D5356000E02560E5
:100F8000336023604006521C000ED2B2082AF2D30E
:100F9000086820F070400860086840F00040086071
:100FA000F0BD0000040C0140F0B512490A6822F0BF
:100FB00070420A600A6842F040520A600D4C0022FA
:100FC0000C34251D4FF400460423C70701D02660CA
:100FD00000E02E60236040082B60521CD2B2082A29
:100FE000F3D3086820F070400860086840F00040C3
:100FF0000860F0BD040C0140F0B523490246002012
:101000000B6823F070430B600B6843F040530B6098
:101010001E4B4FF0100CC3F800C01B4C42F0800573
:101020000C34261D03464FF4004704225FEA056E88
:1010300001D5276000E03760226032606D065B1CDE
:101040002D0EDBB2082BF1D30B6823F070430B603D
:101050000B6843F000430B600B4D00214FF6FF730C
:1010600015F1040503EA40002F683F0401D540F064
:10107000010022603260491CC9B21029F2D3034931
:10108000091FC1F800C0F0BD040C01401408014064
:10109000F0B5214A136823F070431360136843F0DE
:1010A000405313601D4B4FF0100CC3F800C01A4C96
:1010B00000260C34251D4FF4004704235FEA006E20
:1010C00001D5276000E02F6023604006000E2B60F2
:1010D000761CF6B2082EF1D300204FF6FF7600BF43
:1010E0005FEA014E01D5276000E02F60236006EA29
:1010F00041012B60401CC0B21028F1D30748001FEB
:10110000C0F800C0106820F070401060106840F017
:1011100000401060F0BD0000040C014014080140C4
:101120002DE9F0470020FFF727FBDFF87C908025B2
:10113000C9F8005009F10406042737601A480C3832
:10114000016821F070410160016841F04051016087
:101150002802306015484FF01008C0F80080134C8A
:10116000143C216821F070612160216841F04071D8
:10117000216005603220FFF721FD0120FFF7FCFA16
:1011800035600520FFF71AFD0849091FC1F80080E6
:10119000C9F80070206820F070602060206840F07E
:1011A00080602060BDE8F087100C01401408014009
:1011B0002DE9F8435F4F102581463D607020FFF711
:1011C000C9FE3E1F356010210520FFF761FF4FF477
:1011D000FA742046FFF700FD10210520FFF758FFA5
:1011E000C0210F20FFF754FF2046FFF7F5FC0F202A
:1011F000FFF702FFADF80000BDF80000C02817D0CF
:101200004D48802404600A20FFF7D8FC4A48001D9E
:1012100004600220FFF7D2FC7020FFF79BFE102134
:101220000520FFF735FFC0210F20FFF731FFFEE754
:1012300049F210010520FFF72BFF4CF6480106206C
:10124000FFF726FF44F210010520FFF721FF49F2C6
:1012500030310620FFF71CFF46F210010520FFF792
:1012600017FF44F22E010620FFF712FF45F210018E
:101270000520FFF70DFF40F204710620FFF708FF7D
:1012800010210520FFF704FFDFF8B080002400BF25
:1012900038F814102046FFF7FBFE641CE4B2102C53
:1012A000F6D33D602020FFF755FE244F00240C3F6D
:1012B000385DFFF779FE641CE4B2042CF8D3356086
:1012C0004BF210010520FFF7E3FE40F69261062085
:1012D000FFF7DEFE4CF210010520FFF7D9FE40F2C9
:1012E00099210620FFF7D4FE10210520FFF7D0FE3C
:1012F00000F050FA04460221484600F05DF84FF431
:1013000045410A20FFF7C4FE00F000F94AF210013F
:101310000520FFF7BDFE09210620FFF7B9FE1021C9
:101320000520FFF7B5FE48210F20FFF7B1FE20464C
:10133000BDE8F88314080140100C0140C41D0008EA
:10134000F0B51248407806281DD00025FF242F460E
:101350002E4672B60A20FFF74FFEC0B262B600EB0F
:10136000800000093C30A84200D90546A04200D2C6
:101370000446761C3844F6B287B2032EE9D3381BF4
:10138000401BC0B2F0BDFF20F0BD000022000020D5
:1013900000B50E20FFF730FE0146C1F30012C0F386
:1013A0004210C1F300210AB140F08000002901D0B1
:1013B00040F0400000BD000070B5244C0546607848
:1013C000012801D000F0A2F8204E1636EC2D357021
:1013D0002DD0ED2D2BD0EE2D29D0690805F0010080
:1013E000202901D900223270184A0E3202EBC102C4
:1013F00032F8203002EB8002A3805288E280144A47
:1014000002EB011131F8302001EBC000228180880D
:101410000E496081891DB27B881E00F033FA0B49AA
:10142000B27B0A31881E00F02DFA002070BD0849F9
:10143000EC3DE8B2283131F8302001EBC001A28048
:101440008988E18002491031DCE700002200002099
:10145000E41D000870B5044624484078012801D0F6
:1014600000F054F8214D1635687864F30100687077
:101470001CB3012C22D04FF4AB5541F61106022CBF
:1014800004D0032C09D06FF0090070BD1021052095
:10149000FFF7FEFD40F6790104E010210520FFF77B
:1014A000F7FD79210020FFF7F3FD29460620FFF71D
:1014B000EFFD31460820FFF7EBFD14E01021052079
:1014C000FFF7E6FD4FF4BC710020FFF7E1FD41F2AC
:1014D0009A510620FFF7DCFD41F615010820FFF7C1
:1014E000D7FDFF202870002070BD000022000020E2
:1014F00000B5032800D30320034931F8101007205A
:10150000FFF7C6FD002000BDBC1D0008154800B552
:10151000016841F002010160124914390A6822F0A1
:1015200002020A600A1D136823F0020313600268B6
:1015300042F020020260086820F02000086040218C
:101540000F20FFF7A5FD0848016821F070610160D8
:10155000016841F08061016004480121417000216F
:10156000017000BD14040140000801402200002069
:1015700030B51B4C05466078012801D0FFF7C6FF47
:101580000220607016490C31087820F001000870C4
:10159000087820F002000870087820F00C0008702D
:1015A000087820F030000870088865F389100880FA
:1015B000A1880120FFF76CFDE1880220FFF768FD9C
:1015C00048210F20FFF764FD0648016841F0200123
:1015D000016004481430016841F02001016030BD11
:1015E00022000020000401400248018821F47071AB
:1015F000018070472E000020F0B50746194840785A
:10160000012801D0FFF782FF174D10242E1F41F251
:101610000451012F10D0022F02D0032F20D10BE054
:101620000C20FFF735FD2C602020FFF793FC5520A0
:10163000FFF7BAFC55200AE00C20FFF729FD2C60CB
:101640002020FFF787FC5520FFF7AEFCB920FFF7FD
:10165000ABFC9820FFF7A8FCF320FFF7A5FC346053
:101660000020F0BD220000201408014010B51B4CE2
:101670000021217028B101281FD0FFF747FF00206B
:1016800010BD22210D20FFF703FDA1880120FFF7E7
:10169000FFFCE1880220FFF7FBFC48210F20FFF749
:1016A000F7FC0F48016821F070610160016841F0AA
:1016B0008061016001202070E1E70220207000F0CD
:1016C00013F80848016841F0200101600548143012
:1016D000016841F020010160D1E7000022000020F4
:1016E000000801400004014010B5274C6078012833
:1016F00001D0FFF70BFF24480C30017821F00101E5
:101700000170017821F002010170017821F00C01D3
:101710000170017821F030010170018821F47071AD
:1017200001F5C07101801948016821F07061016004
:10173000016841F04071016006206070218901203C
:10174000FFF7A6FC61890220FFF7A2FC58210F20B9
:10175000FFF79EFC0E48016841F0020101600C4950
:1017600014390A6822F002020A600A1D136823F085
:10177000020313600A6842F020020A60016841F027
:101780002001016010BD000022000020000801407F
:10179000140401407CB541F642010F20FFF778FCAC
:1017A0004FF4C866ADF8046041F602040F20FFF75D
:1017B00023FCADF80000BDF800002040ADF80000AB
:1017C000BDF80400401EADF8040000BF00BF00BF1C
:1017D00000BFBDF8000018B1BDF804000028E5D135
:1017E000BDF80400F0B30E20FFF706FCADF80000D2
:1017F000BDF80000C0F30010A0BB214D002400BFC5
:1018000035F824100120FFF743FC05EB84004188E4
:101810000220FFF73DFCC4210F20FFF739FCADF893
:1018200004600F20FFF7E8FBADF80000BDF80000F2
:1018300000F00400ADF80000BDF80400401EADF853
:10184000040000BF00BF00BF00BFBDF8000018B11A
:10185000BDF804000028E4D1641CE4B2032CCFD30B
:101860000E2000E009E0FFF7C7FBADF80000BDF86F
:101870000000C0F30020002800D008207CBD00003C
:10188000241E000830B502F07F037D2B00D9002311
:1018900015064FF6FF740A8804EA83030BD59A42B3
:1018A00001D9D01A05E00288521E02800A88E01A87
:1018B0001044088030BD1A44B2F5803F03D303883A
:1018C0005B1C0380521C0A8030BD000010B5002054
:1018D000FFF7A0F900F07F01642900D90020FFF78D
:1018E00025F80020FEF70AFF01490020487010BDCE
:1018F00068160020254810B5C178254A4906090E0A
:10190000C1701268120602D541F00101C1701F4971
:10191000447889684900DCB102220823012C24D0D4
:10192000022C14D18178491E11F0FF0181700ED173
:101930008370164CC3784179903C333B6354491C07
:10194000C9B241718A2902D302710321417010BDCD
:101950008160C278D20702D041F001018160B1F10B
:10196000AA3FF4D101210171F0E78160C478E40756
:1019700002D041F001018160064CA142E7D14270E2
:10198000837000214171C17010BD000068160020F5
:1019900008080140A3AAAAAA2DE9F05F2A4D002752
:1019A0003C462888401C80B22880B0F5966F03D34F
:1019B0002C800020FEF7A2FE244EA846747074719D
:1019C0003471B460287800F00100FEF79FFFFEF745
:1019D000A9FFDFF87C900A250820C9F8000083469B
:1019E0004FEA060A00F029F918B16D1E15F0FF053F
:1019F00009D0184E30688006F4D5FFF77BFF202011
:101A000030601FB106E00020BDE8F09F9AF80400A6
:101A100001280DD09AF804000228E3D1C9F800B0DB
:101A20000A488A21903800F017F840B10120EBE70E
:101A300007490127C825091DC1F800B0D2E7A8F859
:101A400000408A20E0E70000200000206816002007
:101A5000100C014014040140002200F001B8000005
:101A600030B5054600200A4C0EE02B5C82EA03628A
:101A70000823002A4FEA420200DA62405B1E1B0480
:101A80001B0CF6D1401C80B28842EED3104630BD0C
:101A9000B71DC10408B50448FFF706F98DF800002A
:101AA0009DF8000008BD0000FCDF010838B5094CB6
:101AB0008DF800008DF801008DF802008DF803000C
:101AC000042269462046FFF703F92046FFF7ECF8A9
:101AD00038BD0000FCDF01082DE9F05F0546017804
:101AE00090F801804088C42944BAA88840BA39D106
:101AF0002D498B78984535D04FF46072944231D29D
:101B000090422FD2A0422DD8401E87B2DFF89CB061
:101B100007EB47020BEB4206B088B84202D170884F
:101B2000A04224D0894609784FF0000A884505D0A4
:101B300089F802A089F801A000F03AF889F800803D
:101B400099F8010028B9FFF76BF858B9012189F815
:101B50000110A6F802A0A6F804A0A91D3846FFF7B8
:101B600081F810B10020BDE8F09F7480B78000209C
:101B700059460DE000EB400201EB42025388A342BC
:101B800002D19288824201D00120ECE7401C80B251
:101B9000A042EFD35A20FFF789FFFFF762F8FEF764
:101BA000FBFF0220DFE700000800002048000020C3
:101BB00010B50020074A01464FF4607400EB400363
:101BC00002EB4303401C598080B29980A042F5D3B8
:101BD00010BD00004800002070B50120FEF7B2FCE7
:101BE0006120FEF78DFC0028FAD00220FEF706FCEB
:101BF0000028FAD10A4C45F2555525600420606052
:101C00000220FEF7FBFB0028FAD1256040F6FF70AA
:101C1000A0604AF6AA2020604CF6CC40206070BD3F
:101C2000003000404FF0E0204FF6FF1141610021ED
:101C3000816105210161704770474FF0E020006924
:101C4000C00301D501207047002070472DE9F05FE7
:101C50000024DFF89CB0DFF89C9007462646254616
:101C60004FF496784AF6AA2ACBF800A0FFF7E5FFD2
:101C7000012806D1B8F1000F38D0A8F101001FFAF1
:101C800080F840F225514846FEF7E9FE0028EBD0E7
:101C900008214846FEF7DCFE0028E5D140F2255138
:101CA0004846FEF7C5FE1348001D0088B855761C4F
:101CB0006D1CEDB206F07F060B2DD5D3385D55288F
:101CC0000CD138194178AA2908D18178082905D181
:101CD000C178AF2902D1807A452805D06D1E641CD9
:101CE000EDB204F07F04BFE7FEF756FFBDE8F09FBA
:101CF000003000400048004070B5294D86B00021FA
:101D00002846FEF79BFE01218804FEF78FFB002189
:101D10004FF41650ADF80C100190ADF808100C20DF
:101D2000ADF80A10ADF81010ADF80E0001A9284664
:101D3000FEF7CCFE2815ADF8000001248DF8024016
:101D40001820184E8DF8030069463046FEF7D4FA85
:101D5000E002ADF8000048208DF8030069463046E7
:101D6000FEF7CAFA2002ADF800008DF802401020FC
:101D70008DF8030069460C48FEF7BEFA40F2266172
:101D80002846FEF755FE012240F225512846FEF76F
:101D900085FE01212846FEF751FE06B070BD000009
:101DA00000480040000C0140000801400149088043
:101DB000704700000448004055555555290331032C
:101DC0002D032F037908961014C800006C1E100014
:101DD000601536031118093000003F4000156200FD
:101DE000835A40009410000014380000971000003F
:101DF000145800009210000014900000951000008C
:101E000014300000991000001470000092100000BF
:101E1000148800009510000014280000991000009C
:101E2000146800008F1014C8961014089C101448F1
:101E3000501E00080000002048000000780B000839
:101E4000981E000848000020481A0000880B00086F
:101E5000000000000000000000000002040608006E
:101E60000000000102030401020304060708090040
:101E70000000000000000000000000000000000062
:101E80009410143097101450000250105510F3980D
:081E9000B90050006E00005A79
:04000005080000ED02
:00000001FF
