:020000040800F2
:10200000680A0020B1190108C1190108C3190108A3
:10201000C5190108C7190108C91901080000000005
:10202000000000000000000000000000CB190108C3
:10203000CD19010800000000CF190108A3B3000862
:102040003D1A0108411A0108451A0108491A0108F8
:102050004D1A0108511A0108551A0108D9D500086E
:102060005D1A0108611A0108651A0108691A010858
:102070006D1A0108711A0108751A0108791A010808
:102080007D1A0108811A0108851A0108891A0108B8
:102090008D1A0108911A0108951A0108F1D5000856
:1020A0009D1A0108A1B70008A51A0108A91A01087C
:1020B000FDB70008CB720008FB6E0008B91A0108D2
:1020C000BD1A0108C11A0108C51A0108C91A010878
:1020D000CD1A0108D11A010805DB000899BA0008D9
:0C20E000D9B10008E11A0108E51A010856
:1021000076657273696F6E3A25C4000046413235B8
:102110002D000000464300022DE9F24F86B0070073
:1021200000208DF8010000208DF80300DFF83C0D41
:102130004089401CDFF8341D4881DFF8300D4089AC
:10214000B0F57A7F0CD30020DFF8201D4881DFF83E
:102150001C0D0078002803D00120DFF8101D487006
:102160000020DFF80C1D08700024387810F0800083
:102170008DF80200DFF8FC0C0068407810F03300A6
:10218000DFF8F41CC875387810F03C00C0B228287D
:1021900000F091802C2800F05A81382800F0ED8062
:1021A0003C2840F0BE815FF00E0B5FF00608062071
:1021B0008DF800009DF80200002807D1DFF8B80C68
:1021C000C07D50F0CD00DFF8B01CC8755FFA88F80C
:1021D0004246DFF8A81C781C01F032FE002801D12D
:1021E00001240AE05FFA88F8424692B2FF21781C87
:1021F00001F084FF002800D10224E4B2002C39D081
:102200009DF800205FFA88F807EB0800411C04AD38
:10221000280002F0C1F85FFA88F84246791C01AD47
:10222000280002F0B9F8E4B2012C16D19DF8002084
:102230005FFA88F807EB0800411C7D1C280002F0BB
:10224000ABF85FFA88F8424601A99DF800003844CF
:10225000451C280002F0A0F80CE05FFA88F842461E
:10226000DFF8181C5FFA88F807EB0800451C280007
:1022700002F092F85FFA8BFB07EB0B0010F8015CA1
:1022800015F0F005DFF8F80B00782900C9B2884294
:1022900040F04D815FFA88F8424692B2FF2101A8D2
:1022A00001F02CFF002840F042810320DFF8C81B1A
:1022B000087001F062BC5FF0060B5FF002080220BC
:1022C0008DF800009DF80200002807D1DFF8A80B68
:1022D000C07D50F08900DFF8A01BC8755FFA88F850
:1022E0004246DFF8A01B781C01F0AAFD002801D1AE
:1022F00001240AE05FFA88F8424692B2FF21781C76
:1023000001F0FCFE002800D10224E4B2002C33D0FE
:102310009DF800205FFA88F807EB0800411C04AD27
:10232000280002F039F85FFA88F84246791C01ADBE
:10233000280002F031F85FFA88F84246DFF8441BC3
:10234000781C01F07DFD00280AD19DF800205FFA7D
:1023500088F807EB0800411C7D1C280002F01CF8DF
:102360005FFA88F84246DFF81C1B9DF800003844ED
:10237000451C280002F010F87CE75FF00A0B5FF0C4
:10238000020806208DF800009DF80200002807D101
:10239000DFF8E40AC07D50F08C00DFF8DC1AC87565
:1023A0005FFA88F84246DFF8DC1A781C01F048FD35
:1023B000002801D101240AE05FFA88F8424692B26F
:1023C000FF21781C01F09AFE002800D10224E4B21B
:1023D000002C3BD09DF800205FFA88F807EB08003E
:1023E000411C04AD280001F0D7FF5FFA88F842468F
:1023F000791C01AD280001F0CFFF5FFA88F8424652
:10240000DFF8801A781C01F01BFD00280AD19DF826
:1024100000205FFA88F807EB0800411C7D1C2800AB
:1024200001F0BAFF5FFA88F84246DFF8581A9DF8C3
:1024300000003844451C280001F0AEFF387810F049
:10244000C3003870387850F02C00387012E75FF015
:102450000A0B5FF0060802208DF800009DF80200CC
:10246000002807D1DFF8100AC07D50F0C800DFF85F
:10247000081AC8755FFA88F84246DFF8001A781C17
:1024800001F0DEFC002801D101240AE05FFA88F89F
:10249000424692B2FF21781C01F030FE002800D1A4
:1024A0000224E4B2002C3BD09DF800205FFA88F8AB
:1024B00007EB0800411C04AD280001F06DFF5FFA36
:1024C00088F84246791C01AD280001F065FF5FFAEB
:1024D00088F84246DFF8A419781C01F0B1FC002806
:1024E0000AD19DF800205FFA88F807EB0800411C2C
:1024F0007D1C280001F050FF5FFA88F84246DFF8A3
:102500007C199DF800003844451C280001F044FF68
:10251000387810F0C3003870387850F038003870D0
:10252000A8E60320DFF85019087001F026BBDFF899
:10253000500905709DF80200002800F0FC815FFA48
:102540008BFB07EB0B0010F8010C10F00F000128BB
:10255000C0F29F815FFA8BFB17F80B0010F01F0091
:102560008DF801009DF80100002800F08B815FFAD2
:102570008BFB07EB0B004678F60016F018065FFAA7
:102580008BFB17F80B00C0B256EA5016F6B2072EB6
:1025900005DA9DF801003100C9B2884205D2032056
:1025A000DFF8D418087001F0E8BA761E5FFA8BFBEA
:1025B00007EB0B0090F802A05FEA0A2A5FFA8BFB98
:1025C00007EB0B00407850EA0A0A1BF10300DFF822
:1025D0004C1D08705FF00009002570E0EDB2002D81
:1025E0005ED1DFF83C0DEDB2072101FB05F1425C45
:1025F000DFF82C0DEDB2072101FB05F10844411C69
:10260000DFF8200D0390039801F0C6FE0398DFF871
:10261000100DEDB2072101FB05F1405CDFF8581801
:10262000C871DFF85408C07D5FEA890111F00C0120
:102630000843DFF84418C87532E0E4B2002CCDD16D
:10264000EDB2F6B2701E85422AD1DFF8D40CEDB29D
:10265000072101FB05F1425CDFF8C40CEDB2072154
:1026600001FB05F10844411CDFF8B80C0390039806
:1026700001F092FE0398DFF8A80CEDB2072101FBF0
:1026800005F1405CDFF8F017C871DFF8EC07C07D9A
:102690005FEA890111F00C010843DFF8DC17C87507
:1026A000DFF8780C0178DFF8780CEDB2072202FB36
:1026B00005F2805C4118DFF8640C01706D1C280085
:1026C0009DF80110C0B2884280F0B4801FFA8AFAE7
:1026D0005FEA9A0A5FEA89091AF0030050EA0909D9
:1026E0001FFA8AFA1AF0030002281BD10220DFF831
:1026F000301CEDB2072202FB05F288540222DFF8FB
:102700001C0C007807EB0001DFF8140CEDB2072376
:1027100003FB05F31844401C0390039801F03CFEB2
:10272000039820E01FFA8AFA1AF00300032862D106
:102730000620DFF8EC1BEDB2072202FB05F28854FD
:102740000622DFF8D80B007807EB0001DFF8D00B8A
:10275000EDB2072303FB05F31844401C03900398D4
:1027600001F01AFE039828003100C0B2C9B28842B5
:102770007FF463AFDFF8A80BEDB2072101FB05F191
:10278000425CDFF89C0BEDB2072101FB05F1084428
:10279000411CDFF8940B0390039801F0FDFD0398B2
:1027A000DFF87C0BEDB2072101FB05F1405CDFF89F
:1027B000C8160872DFF8C006C07D50EA8910DFF83D
:1027C000B816C875DFF8580BEDB2072101FB05F10B
:1027D000405C022815D10222DFF8A816DFF8480B6A
:1027E00001F02EFB00283FF428AF0320DFF8881605
:1027F000087001F0C2B90320DFF87C16087001F000
:10280000BCB90622DFF87416DFF81C0B01F018FBC8
:1028100000283FF412AF0622FF21DFF80C0B01F075
:102820006DFC00283FF409AF0320DFF84C16087058
:1028300001F0A3B9F6B2002E22D15FFA88F8424621
:10284000791CDFF8E05A280001F0A6FDDFF8280621
:1028500080F807805FFA88F8B8F1060F08D1DFF832
:102860001806C07D50F00C00DFF80C16C87507E0A4
:10287000DFF80406C07D50F00800DFF8FC15C875CD
:102880005FEA8909E4B2002C6FD01BF10306002532
:1028900030E00320DFF8E015087001F06EB9DFF8D2
:1028A000801A9DF80120EDB2521B0720424301EB34
:1028B000020010F8072CDFF8681A9DF80130EDB21D
:1028C0005B1B0720434301EB0300811FF6B207EBBC
:1028D000060A504601F060FDDFF8441A9DF8012019
:1028E000EDB2521B0720424301EB020010F8070C27
:1028F00086196D1C28009DF80110C0B28842CED305
:102900009DF801009DF8011051EA40115FFA8BFB20
:1029100007F80B105FFA8BFB07EB0B0080F80190B8
:102920001FFA89F95FEA19295FFA8BFB07EB0B00A5
:1029300080F8029019E05FFA8BFB07EB0B0010F8B0
:10294000010C10F00F00012802DBE4B2002C05D1CD
:102950000320DFF82415087001F00FB900208DF86E
:102960000100DFF8B80980F800B0E4B2002C00F0F4
:10297000A880DFF8040580F808805FFA88F84246EE
:102980009DF800003844411CDFF89C59280001F0F4
:1029900003FD9DF80200002807D09DF802000028E2
:1029A00025D09DF80100002821D19DF80020791C38
:1029B000DFF87059280001F0EFFC9DF80000DFF807
:1029C000B814C8719DF80000062808D1DFF8A804E3
:1029D000C07D50F00C00DFF8A014C87507E0DFF8E8
:1029E0009804C07D50F00800DFF88C14C8755FFAB9
:1029F00088F8B8F1060F08D1DFF87C04C07D50F0EC
:102A0000C000DFF87414C87507E0DFF86C04C07DFF
:102A100050F08000DFF86014C8755FFA88F842460D
:102A200092B2FF21781C01F069FB00281DD15FFAEA
:102A30008BFB07EB0B0010F8015C15F0F0055FFA5B
:102A40008BFB07EB0B0010F8016C16F00F06F6B2CB
:102A5000002E00D0761E16F00F0635435FFA8BFB72
:102A600007EB0B0000F8015CCFE05FFA8BFB07EB94
:102A70000B0010F8015CEDB22D095FFA8BFB07EB40
:102A80000B0000F8015C5FFA8BFB07EB0B0010F802
:102A9000010C00015FFA8BFB07EB0B0101F8010C45
:102AA0005FFA8BFB07EB0B0010F8010C9DF801108F
:102AB000491C08435FFA8BFB07EB0B0101F8010C83
:102AC000A3E05FFA8BFB07EB0B0010F8010C10F092
:102AD0000F00012858D1DFF8A003427A92B2FF21FB
:102AE000DFF890030068401D01F008FB00280FD1BB
:102AF0005FFA88F8424692B2FF21781C01F0FEFA94
:102B0000002805D00320DFF87013087001F035B8F5
:102B10005FFA88F84246791CDFF80858280001F06F
:102B20003BFC9DF80000D449C871D34880F8088068
:102B30005FFA8BFB07EB0B0010F8015CEDB22D097F
:102B40005FFA8BFB07EB0B0000F8015C5FFA8BFB75
:102B500007EB0B0010F8010C00015FFA8BFB07EB91
:102B60000B0101F8010C5FFA8BFB07EB0B0010F86F
:102B7000010C9DF80110491C08435FFA8BFB07EB21
:102B80000B0101F8010C40E05FFA8BFB07EB0B0037
:102B900010F8010C10F00F0F04D10320B649087093
:102BA00000F0EBBF5FFA8BFB17F80B50EDB26D092D
:102BB000EDB2002D00D06D1E5FFA8BFB17F80B6095
:102BC00016F01F0656EA45165FFA8BFB07F80B60F6
:102BD0005FFA8BFB07EB0B0010F8015C15F0F005BA
:102BE0005FFA8BFB07EB0B0010F8016C16F00F0679
:102BF000F6B2002E00D0761E16F00F0635435FFAAF
:102C00008BFB07EB0B0000F8015C9DF8020000282D
:102C100009D09DF80100002805D11BF1030BDFF856
:102C2000FC0680F800B0387810F00300C0B200282D
:102C300003D001282DD000F09DBFE4B2002C17D0A6
:102C40002200D2B2BDF81810DFF8D0060078091AB9
:102C5000C9B2DFF8C8060078384401F0F1FB8648B5
:102C60008179DFF8B80600784118834881710EE059
:102C700004F058F9002803D003207F49087006E0CB
:102C800002207D490870BDF818007B49887100F06A
:102C900074BFDFF88806007807EB0009BDF818005C
:102CA0007549887199F80000012800F052870228C0
:102CB00000F0508703282DD00B2800F04C870D28FA
:102CC00000F04987102832D0112800F044871228DC
:102CD00000F00F83132800F03E87202800F0D386F1
:102CE000212800F03887422800F00187432800F0AF
:102CF0003287A02800F0CE80A12800F02C87A428DD
:102D000000F08086A52800F02687B22800F0EE8229
:102D100000F02CBFE4B2002C04D003205649087008
:102D200000F02BBF02205449087000F022BFE4B22B
:102D3000002C00F0A980DFF8140C90F8BC021021E0
:102D400090FBF1F1DFF8040C90F8BC02102290FB2C
:102D5000F2F302FB1300002800D0491C99F801008F
:102D600010F00F0089F8010099F8018099F801002E
:102D700050EA011089F801005FFA88F818F10100A3
:102D8000C9B2884203DA102089F8020024E05FFA11
:102D900088F818F10100C9B288421AD1DFF8AC0BEB
:102DA00090F8BC02102190FBF1F201FB1200002808
:102DB0000BD0DFF8980B90F8BC02102190FBF1F2D9
:102DC00001FB120089F8020006E0102089F80200D9
:102DD00002E0002089F8020099F8026007204643CB
:102DE0005FFA88F85FEA081A0025002422E006222C
:102DF000DFF8581B5FFA8AFAE4B214EB0A030620E4
:102E000043431944EDB209EB0500C71C380001F03B
:102E1000C3FAAD1DDFF8340B5FFA8AFAE4B214EBA3
:102E20000A01084490F8E001EDB209EB0501C87011
:102E30006D1C641C28003100C0B2C9B28842D6D3D0
:102E4000DFF8D804017899F80220072000FB02116E
:102E5000C91C09488171112089F800000120064928
:102E6000087001200249087000F087BEFC3A00207B
:102E7000953C0020203C0020A03A0020F43B00209C
:102E8000943C0020843800200220DFF8881D087060
:102E900000F06FBEE4B2002C00F02282A12089F87D
:102EA000000099F80170FFB2BF09FFB2002F40F097
:102EB000FB80DFF8980A90F8BC42E4B20C2094FB47
:102EC000F0F1E4B220000C2290FBF2F302FB1300BD
:102ED000002800D0491C99F8010010F00F0089F873
:102EE000010099F8018018F00F0858EA011089F8DC
:102EF00001005FFA88F818F10100C9B2884203DACC
:102F00000C2089F802001FE05FFA88F818F1010030
:102F1000C9B2884215D1E4B220000C2290FBF2F332
:102F200002FB1300002808D0E4B20C2094FBF0F25E
:102F300000FB124489F8024006E00C2089F80200E8
:102F400002E0002089F802000C2505FB08F50026A8
:102F500099F802404046C9B2C0B2814204D200256D
:102F6000002089F80200002419F1030B4BE01AF04D
:102F70000F0A30E00622DFF8D409EDB2062101FB8A
:102F800005F10144584601F007FADFF8C009EDB237
:102F9000284490F8E0018BF80600DFF8B009EDB2A4
:102FA000284490F830028BF80700EDB2022095FB20
:102FB000F0F0DFF89819084490F880A2EDB22800EC
:102FC000022190FBF1F201FB12000028CFD05FFA42
:102FD0008AFA5FEA1A1ADFF874095FFA8AFA00EBD4
:102FE0004A0090F8A8028BF80800DFF860095FFA41
:102FF0008AFA00EB4A0090F8A9028BF809001BF14D
:103000000A0B761C6D1C30002100C0B2C9B2884288
:10301000B0D3C24801780A2000FB0414E41CDFF896
:10302000F40B84715FFA88F8B8F1000F40F0528118
:10303000DFF8E40BC0F800B0DFF8DC0B00680188B3
:103040004FF6FE700140DFF8D00B00680180DFF81A
:10305000CC0B90F82000DFF8C01B0968098860F3EA
:103060004301DFF8B40B00680180DFF8B40B00788F
:10307000DFF8A41B0968098860F30411DFF8980BD6
:1030800000680180DFF8980B007B002800F0DD80ED
:103090000420DFF8841B0968098860F34711DFF812
:1030A000780B00680180DBE0DFF8A00890F8BC42F4
:1030B000E4B21E2094FBF0F1E4B220001E2290FB4B
:1030C000F2F302FB1300002800D0491C99F801001C
:1030D00010F00F0089F8010099F8018018F00F082E
:1030E00058EA011089F801005FFA88F818F1010028
:1030F000C9B2884203DA1E2089F802001FE05FFA95
:1031000088F818F10100C9B2884215D1E4B2200054
:103110001E2290FBF2F302FB1300002808D0E4B259
:103120001E2094FBF0F200FB124489F8024006E0F6
:103130001E2089F8020002E0002089F802001E2506
:1031400005FB08F599F802404046C9B2C0B2814279
:1031500004D20025002089F802000024002619F17D
:10316000030B5CE01AF00F0A42E03900C9B2DFF845
:10317000DC07EDB2062202FB05F2104400F052FD1E
:1031800082468BF800A01FFA8AFA5FEA1A2A8BF8A7
:1031900001A0DFF8B807EDB2284490F8E00100F094
:1031A00064FD00018246DFF8A407EDB2284490F8E0
:1031B000300200F073FD010011F00F01504608438A
:1031C0008BF80200EDB2022095FBF0F0DFF87C17DF
:1031D000084490F880A2EDB22800022190FBF1F2A1
:1031E00001FB12000028BDD05FFA8AFA5FEA1A1AC2
:1031F000DFF858075FFA8AFA00EB4A0090F8A81245
:10320000DFF848075FFA8AFA00EB4A0090F8A90253
:1032100041188BF803101BF1040B761C6D1C300059
:103220002100C0B2C9B288429FD399F8020050EA87
:10323000871089F8020039480078E4B210EB840066
:10324000C01CDFF8D0198871ECE60320DFF8C8193C
:103250000968098860F34711DFF8BC09006801803C
:10326000DFF8B809407E002801D1002000E00120ED
:10327000DFF8A4190968098860F30821DFF89809C4
:1032800000680180DFF89009006801884FF6FF10A0
:103290000140DFF8840900680180DFF87C090068DC
:1032A00000884005400DDFF87019096808801BF19F
:1032B000020BDFF860098079801CDFF858198871EB
:1032C000584604F06CFBDFF84C1989794018DFF898
:1032D000441988710120DFF83C19087000F04DBCDA
:1032E0000220DFF83019087000F043BC5A208DF836
:1032F00003000026E4B2002C00F080835FFA88F817
:10330000424692B2FF2101A800F0F8FE00280DD13C
:103310000320DFF80019087000F02BBC933C00205C
:10332000D03A0020AB3A0020B13A002019F1020B4C
:1033300099F80100400716D59BF8000010F03F00F7
:10334000DFF8B01A89780200D2B2914200D001268B
:10335000DFF8A01A8870DFF89C0A8178012004F059
:103360004AFF1BF1010B9BF801A05FEA0A2A9BF8B8
:10337000000050EA0A0A1BF1020B99F80100C0078D
:1033800029D55FEA8A50800DDFF86C1A0881DFF8D2
:10339000640AC088DFF8601A0989884200D00126D3
:1033A000DFF8540A0089DFF84C1AC88003F0D2F91C
:1033B0000021DFF8480A05F043F903F019F9DFF8B6
:1033C000340AC088DFF82C1AA1F84A000120DFF87F
:1033D000241A81F8480099F8010080070FD550465B
:1033E00080B2801210F00F00DFF8081AC9780200CE
:1033F000D2B2914200D00126DFF8F819C87099F8CE
:103400000100000714D502225946DFF8F40900F044
:1034100017FD002800D001269BF80000DFF8D41922
:1034200008749BF80100DFF8CC1948741BF1020BFB
:1034300099F80100C00614D502225946DFF8C409E4
:1034400000F0FEFC002800D001269BF80000DFF809
:10345000A41908729BF80100DFF8981948721BF153
:10346000020B99F80100800640F1BD80DFF8840965
:10347000407E9BF80010884200D001269BF8000097
:10348000DFF870194876DFF86C09407E042803DB0A
:103490000020DFF8601948761BF1010BDFF85409B2
:1034A000407E00282FD09BF80050DFF84809807E2E
:1034B0002900C9B2884200D00126EDB2072D01DBF8
:1034C0000625FFE7DFF82C098576DFF82809807EDE
:1034D000C0B24500EDB22A001BF10101DFF8280956
:1034E00000F0AEFC002800D00126EDB22A001BF14E
:1034F0000101DFF81449200000F04EFFEDB20BEBA4
:10350000050010F1010BDFF8EC08407E022832DBE9
:103510009BF80050DFF8DC0890F827002900C9B2BA
:10352000884200D00126EDB2072D01DB0625FFE71A
:10353000DFF8C00880F82750DFF8B80890F82700B7
:10354000C0B24500EDB22A001BF10101DFF8BC0852
:1035500000F076FC002800D00126EDB22A001BF115
:103560000101DFF8A848200000F016FFEDB20BEBD8
:10357000050010F1010BDFF87C08407E032832DBE8
:103580009BF80050DFF86C0890F834002900C9B2AD
:10359000884200D00126EDB2072D01DB0625FFE7AA
:1035A000DFF8500880F83450DFF8480890F834000D
:1035B000C0B24500EDB22A001BF10101DFF850084E
:1035C00000F03EFC002800D00126EDB22A001BF1DD
:1035D0000101DFF83C48200000F0DEFEEDB20BEB0D
:1035E000050010F1010B99F80100000621D4062214
:1035F000791CDFF82048200000F0CEFEDFF8F40749
:1036000000785A2800D001265A20DFF8E817087001
:103610000020DFF80C1608740020CC4981F8BC02A9
:103620000020CA4981F8BD020020C84981F8BE02C5
:1036300009E0DFF8C0070078002800D0012600204C
:10364000DFF8B0170870DFF8D007C0F800909DF8D9
:103650000300002800F082809BF80000DFF8941738
:1036600091F84110884211D19BF80100DFF88417CE
:1036700091F84210884209D19BF8020010F0030033
:10368000DFF8701791F84310884228D09BF80000AB
:10369000DFF8601781F841009BF80100DFF854174C
:1036A00081F842009BF8020010F00300DFF8441795
:1036B00081F84300DFF83C0790F84100002805D16D
:1036C000DFF8300790F84200002807D0DFF8240721
:1036D00090F84310DFF8440704F0B5F901261BF118
:1036E000030B99F80100400625D59BF80000C0B2F5
:1036F000002811D0C0B20BEB80004078DFF8F41640
:1037000091F844100200D2B2914214D0DFF8E416CE
:1037100081F8440001260EE0DFF8D80690F8440056
:103720009BF80110884206D09BF80100DFF8C41610
:1037300081F8440001269BF800000BEB800010F19B
:10374000020BB320DFF8D01609680870DFF8D00646
:1037500000781A30DFF8BC14887182E099F8010013
:10376000400672D5DFF88C0690F844009BF80010F4
:10377000884200D001269BF80000DFF8781681F817
:1037800044001BF1010B9BF800001BF1010B99F8A1
:103790000110C90709D5C0B2032800DB02200121AE
:1037A000DFF8502682F8481008E0C0B2042800DB99
:1037B00003200021DFF83C2682F84810DFF8341699
:1037C00091F848100818DFF82C1691F848100200FC
:1037D000D2B2914200D00126DFF8181681F84800D5
:1037E000DFF8101691F8485021E09BF801A05FEA3D
:1037F0000A2A9BF8001051EA0A0A5FEA8A5A5FEA2D
:103800009A5ADFF8F015EDB201EB4501B1F84A1014
:10381000524692B2914200D00126DFF8D815EDB29F
:1038200001EB4501A1F84AA01BF1020B6D1C290018
:103830000200C9B2D2B29142D7D3DFF8B80590F8EE
:103840004810DFF8E00500F0E2FB1320DFF8C815B0
:1038500009680870DFF8C8050078C01DDFF8B413E8
:103860008871F6B2002E01D005F0E7F90020DFF8EC
:10387000A81509684870C420DFF89C15096888708D
:10388000B120DFF894150968C8702520DFF8881585
:10389000096808715520DFF8801509684871002013
:1038A000DFF87415096888719DF80300002800F09E
:1038B000A180DFF864050068B0F807104FF6FE70CD
:1038C0000140DFF854050068A0F807100120DFF878
:1038D00048150968B1F8071060F34301DFF83805AF
:1038E0000068A0F80710CE480078DFF82C150968AA
:1038F000B1F8071060F30411DFF81C050068A0F8A8
:103900000710C748007B00280DD00420DFF80815F9
:103910000968B1F8071060F34711DFF8FC0400688C
:10392000A0F807100CE00320DFF8EC140968B1F8E8
:10393000071060F34711DFF8E0040068A0F80710F3
:10394000B648407E002803D1002002E0682E002007
:103950000120DFF8C4140968B1F8071060F30821EA
:10396000DFF8B4040068A0F80710DFF8AC040068C2
:10397000B0F807104FF6FF100140DFF89C04006814
:10398000A0F80710DFF890040068B0F807004005C1
:10399000400DDFF884140968A1F80700082100220F
:1039A000DFF87404006810F10904200005F060FAE3
:1039B00004F02CF88246DFF86004006880F811A05B
:1039C0001FFA8AFA5FEA1A2ADFF84C04006880F8C6
:1039D00012A004F023F8DFF840140968C874062226
:1039E000DFF84414DFF83004006810F114042000FC
:1039F00000F0D2FC012087490870BEE00220854912
:103A00000870B6E0032083490870E4B2002C32D07D
:103A1000A52089F8000099F8015019F1010B03F075
:103A2000F5FF82468BF800A01BF1010B1FFA8AFA02
:103A30005FEA1A2A8BF800A01BF1010B03F0EEFFDE
:103A40008BF800001BF1010B00208BF800001BF12C
:103A5000010B584603F0A3FF6E4988716D488079C9
:103A6000DFF8BC130978491D08186A4988710120DC
:103A70006849087081E0022066490870BDF81800A6
:103A80006449887175E0E4B2002C2CD0212089F8BB
:103A90000000002089F80100032089F8020002F0EC
:103AA00048FE99F8031060F3000189F80310DFF86D
:103AB0004403C07889F80400DFF83803C088A9F807
:103AC000050003F0ABFF99F8071060F3020189F8D5
:103AD0000710DFF84C03007808304E498871012048
:103AE0004C49087049E002204A49087041E0E4B2BC
:103AF000002C2AD0432089F8000019F1010B9BF813
:103B0000000010F00F0003204249887110208BF84C
:103B100000001BF1010B01208BF800001BF1010BD1
:103B20000622C249584600F037FC3A488079801D89
:103B30003849887137488179B94800784118354843
:103B4000817101203349087017E002203149087063
:103B50000FE00EE00DE0E4B2002C03D003202D496D
:103B600008700AE002202B49087002E0032029496E
:103B7000087002E003202749087007B0BDE8F08F05
:103B80003CB4C9B2022902D1A94A002314E0C9B247
:103B9000032902D148F2E662F7E7002038E0C15C71
:103BA000C9B20909C9B20A24C55C15F00F0504FBA6
:103BB00001516C46E1545B1C062BF0D39DF80010BC
:103BC0009DF80130642000FB03119DF8023042F2A1
:103BD000107000FB03119DF80330964800FB03139F
:103BE000B3FBF2F002FB10339349B1FBF2F002FB9E
:103BF00010109DF8054064259DF8041005FB041481
:103C000060431B18B3FBF2F002FB1032100080B2CD
:103C100036BC7047A03A0020403C0020C839002044
:103C2000FC3A002038B504000D000622AA2120002D
:103C300000F064FA002802D14AF6AA200CE0EDB2A6
:103C40002800401E03D0401E012806D90BE0207832
:103C5000617850EA012080B232BD2900C9B220004B
:103C6000FFF78EFFF7E70020F6E7C0B2002801D18A
:103C7000002012E0C0B23C2801DA0F200DE0C0B2F3
:103C80003C38032190FBF1F0D0F10E0040B2012846
:103C900001DA012000E0C0B2C0B27047C0B2002813
:103CA00001D1002012E0C0B2172801DA0F200DE088
:103CB000C0B21738032190FBF1F0D0F10E0040B2F2
:103CC000012801DA012000E0C0B2C0B2704770B52F
:103CD000050041202871992068715848007FA8711B
:103CE0005648007F401C5549087702224549EC1D83
:103CF000200000F051FB3F48847EE4B2072C00DB3B
:103D00000024E4B2002C50D002223D4915F10B06EC
:103D1000300000F041FBA82068730221AA2215F1AF
:103D20000E06300005F0A4F80222354915F1100600
:103D3000300000F031FB601CA874200054EA4011F0
:103D4000E9740021002215E02A4BD2B203EB4203B2
:103D5000DB7ED2B205EB4206B375264BD2B203EB43
:103D600042031B7FD2B205EB4206F375890051F086
:103D70000201521C13002600DBB2F6B2B342E3D3B9
:103D80008900297589B2090A69750222C0B205EB5A
:103D9000400010F1140115F10906300000F0FCFAA2
:103DA000E4B260001230287021E00221AA2215F14D
:103DB0000906300005F05CF80222114915F10B06E6
:103DC000300000F0E9FA282068730221AA2215F1D8
:103DD0000E06300005F04CF80222094915F11006D4
:103DE000300000F0D9FA641CAC740F2028702878D9
:103DF00070BD0000743800205C3B002000080040CB
:103E0000843800207C3800208F3800209C38002027
:103E1000A938002086380020443C0020B538002016
:103E2000933C0020BE380020C9390020F43B00201C
:103E3000CD0D010040420F0000E1F505A03A002041
:103E40000300002013F0030F09D0521E22BF13F805
:103E5000010B11F801CBB0EB0C00F3D0704711F05F
:103E6000030F14D1121F22BF53F8040B51F804CBD7
:103E70006045F7D0121D0AD200BA9CFA8CFCB0EB58
:103E80000C0038BF6FF0000088BF01207047521E41
:103E900022BF13F8010B11F801CBB0EB0C00F6D0E8
:103EA000521C08BF1046704710B403004FF6FF7055
:103EB0000A00511E92B2002A13D01A7850405B1C9F
:103EC0000022D2B2082AF3DAC40702D480B2400832
:103ED00005E080B2400880F4044090F00800521CD5
:103EE000EFE780F47F4090F0FF0080B210BC704795
:103EF000DFF8D0030188DFF8D0030068411847F6E7
:103F0000FF70B1FBF0F200FB1211DFF8B803018083
:103F1000DFF8B00300887047DFF8A8130880704707
:103F200070B40200002300201488002001230BE05D
:103F30002500DBB232F81360ADB2B54203D2DBB27A
:103F400032F8134018005B1C1D000E00EDB2F6B2F3
:103F5000B542EDD3C0B270BC704781B0C0B200288A
:103F600002D10800C0B210E0C0B20722C9B202FB01
:103F70000010001DADF80000BDF8000080B2C008C0
:103F8000ADF80000BDF80000C0B201B0704781B0CC
:103F900080B2002802D1080080B20BE080B2072274
:103FA00089B202FB0010001D00900098C00800902C
:103FB000009880B201B0704730B4002200221CE0AB
:103FC000DBB200EB03046478DBB2C55CAC420BD21D
:103FD000DBB2C45CDBB200EB03056D78DBB2C55429
:103FE000DBB200EB03056C705B1CDBB2C9B2D2B272
:103FF0008C1A641EA342E3DB521C13000C00DBB2DC
:10400000E4B2A34201D20023EFE730BC704730B4E2
:10401000002200221FE0DBB200EB43046488DBB225
:1040200030F81350AC420DD2DBB230F81340DBB2A3
:1040300000EB43056D88DBB220F81350DBB200EBD8
:1040400043056C805B1CDBB2C9B2D2B28C1A641E11
:10405000A342E0DB521C13000C00DBB2E4B2A3422B
:1040600001D20023EFE730BC704710B403000020FA
:104070000A00511ED2B2002A11D01A7850405B1C9F
:104080000022D2B2082AF3DAC40702D4C0B2400830
:1040900003E0C0B2400890F08C00521CF1E7C0B2BF
:1040A00010BC704730B4020000240020002403E05C
:1040B000A4B2135D1818641C23000D009BB2ADB2AE
:1040C000AB42F5D3C0B230BC704710B4C9B20229BC
:1040D00012DB0022491E09E0D2B2835CC9B2445C03
:1040E000D2B28454C9B24354521C491E13000C006E
:1040F000DBB2E4B2A342EFD310BC704710B400E0CF
:10410000401C13005A1E9BB2002B09D003780C00F0
:10411000E4B2A342F4D00078C9B2411A080000E02A
:10412000002010BC704792B2002A1ED0814204D2F7
:1041300092B201EB0203984209D313005A1E9BB2BC
:10414000002B12D00B780370491C401CF5E792B28B
:10415000114492B2104403E0491E401E0B780370D4
:1041600013005A1E9BB2002BF6D1704770B50400A5
:104170000D00160006210022300004F079FE002117
:1041800000E0491C08002A0080B292B2904280F000
:10419000978089B2605C327850403070002292B2D1
:1041A000082AEEDA3078000635D4307840003070D6
:1041B0007078000603D5307850F0010030707078C8
:1041C00040007070B078000603D5707850F00100A0
:1041D0007070B0784000B070F078000603D5B07809
:1041E00050F00100B070F0784000F07030790006B7
:1041F00003D5F07850F00100F07030794000307154
:104200007079000603D5307950F001003071707973
:104210004000707152E030784000307070780006D5
:1042200003D5307850F00100307070784000707025
:10423000B078000603D5707850F001007070B07847
:104240004000B070F078000603D5B07850F001005F
:10425000B070F0784000F0703079000603D5F07847
:1042600050F00100F0703079400030717079000634
:1042700003D5307950F001003071707940007071D1
:104280003378124800784340337073780F48407891
:1042900043407370B3780D4880784340B370F3782F
:1042A0000A48C0784340F3703379084800794340A6
:1042B000337173790548407943407371521C6EE73E
:1042C00070BD00006A3C002018E000E0F41901080D
:1042D0007FB504000D00062200212000FFF70EFF2D
:1042E000002801D1012018E006226E46210030008E
:1042F00000F052F806216846FFF7E7FE02AA062101
:104300006846FFF733FF0622290002A8FFF798FD51
:10431000002801D0012000E0002004B070BDF0B4FE
:10432000034618689D681A18586802EB5004C007C5
:1043300021D54D441FE0F0BC03F10C00704712F88A
:10434000017B05F8017B491EF9D1A0B1B60812F82E
:10435000011B06F00306032E08BF12F8016B01EBE8
:1043600006214942801C294405D011F8016B05F84B
:10437000016B401EF9D1A242DDD012F8016B16F09C
:10438000030104BF12F8011BC91C30090F28DAD140
:1043900012F8010B0F30D6E762B38B0708D0521E1C
:1043A00011F8013B00F8013B00F024808B07F6D1A7
:1043B000830740F0208000BF103A07D330B4B1E843
:1043C0003810103AA0E83810F9D230BC530724BF97
:1043D000B1E80810A0E8081044BF51F8043B40F8C9
:1043E000043BD20724BF31F8022B20F8022B44BF34
:1043F0000B7803707047121F17D35B0009D151F877
:10440000043B20F8023B1B0C121F20F8023BF6D2A3
:104410000BE051F8043B00F8013B1B0A20F8023B7B
:104420001B0C121F00F8013BF3D238BF121D521EA5
:1044300024BF11F8013B00F8013BF8D87047000099
:104440002DE9F04780460E00914600255FFA89F974
:10445000B9F1020F19D10222FF21DFF8340C0068F4
:10446000C01CFFF74BFE002801D101250DE0022200
:10447000DFF8201CDFF8180C0068C01CFFF7E0FC18
:10448000002801D1002500E002250020DFF8081CEB
:10449000087498F80000000707D598F80200404417
:1044A000C71C98F80240241D02E018F102070324FB
:1044B00098F80000C0B210F00700C0B2002800F069
:1044C000BD85022803D0C0F0088100F0DBBD5FFA93
:1044D00089F9B9F1020F08D1EDB2022D05D10320FF
:1044E000DFF8B81B087000F0D0BDDFF8AC0B4078E7
:1044F000002844D0FFF7FCFC642190FBF1FA01FB9B
:104500001A0A1FFA8AFABAF13D0F2DDB1FFA8AFA4E
:104510000D209AFBF0F500FB15A5ED1D1FFA8AFA98
:1045200007209AFBF0F600FB16A6F61CEDB22A0057
:10453000DFF86C1B17F101084046FFF72DFFF6B2BC
:10454000EE22EDB207EB0500471C3100380004F005
:104550008FFC2C193419DFF8440B84710120DFF82B
:104560003C1B087000F091BD1FFA8AFABAF10B0FDC
:1045700005DB0320DFF8241B087000F086BD98F8E7
:1045800001503878DFF81C1B0870DFF80C0BC07B7B
:1045900000284AD0DFF8100B0078EDB2A84240D1D5
:1045A000DFF8000B0078F02819D0DFF8000B027854
:1045B000DFF8FC1A7D1C2800FFF7EEFEDFF8EC0A9E
:1045C00000780419DFF8D40A8471DFF8E80A00786B
:1045D00000281CD0F020DFF8CC1A087017E0DFF8B4
:1045E000D40A0278DFF8C80ADFF8C01A0978014453
:1045F0007D1C2800FFF7D0FEDFF8B80A0078041908
:10460000DFF8980A84710020DFF8981A0870DFF844
:10461000940A007838700120DFF8801A087000F0E2
:1046200034BD0020DFF8701AC87305F0DAF90028ED
:1046300006D005F0C9F9002802D0052005F0C1F91F
:10464000361B3100C9B2781C00F040FDDFF84C1A6F
:104650008871DFF8480A8079002820D0DFF83C0A0A
:104660008079DFF8481A0870DFF8300A807924185A
:10467000DFF8280A84710120DFF8201A087098F802
:104680000100DFF8241A08700220DFF80C1AC87342
:10469000DFF8100A0078387006F0BBFD1BE05FFA07
:1046A00089F9B9F1020F05D10320DFF8F01908707C
:1046B00000F0EBBC002088F80000002088F8020021
:1046C000002088F803000420DFF8D0198871012049
:1046D000DFF8C819087000F0D8BC3878C0B20028DC
:1046E0002FD0012852D002286AD0032800F07F8002
:1046F000042800F0A780052800F0FD81062800F0BE
:104700005882072800F06782102800F0848313285D
:1047100000F08183342800F04884362800F06B8450
:10472000822800F0D583842800F0FE83902800F0D2
:104730002784F02800F09C83FC2800F0768300F0AA
:1047400079BC787803280EDAB87806280BDA7878FE
:10475000DFF844190872B878DFF83C19C8710120F5
:1047600088F8020002E0002088F80200002088F8A3
:104770000000002088F803000420DFF82019887169
:104780000120DFF81819087000F057BC787821284C
:1047900003DA012088F8020002E0002088F8020015
:1047A000002088F80000002088F803000420DFF8CB
:1047B000EC1888710120DFF8E418087000F03DBCA7
:1047C0007878DFF8F4184871012088F8020000209A
:1047D00088F80000002088F803000420DFF8BC18E7
:1047E00088710120DFF8B418087000F026BC7D78CD
:1047F000EDB2082D10DA2800DFF8C01891F820106B
:10480000C0B288420CD0DFF8B40880F8205004F021
:10481000FDFA03F00CFD03E02800C0B201F04EF9F0
:10482000012088F80200002088F80000002088F8A5
:1048300003000420DFF8641888710120DFF85C1899
:104840000870FAE35FFA89F9B9F1020F08D1EDB205
:10485000022D05D10320DFF84418087000F015BCC4
:104860007F1C0C22DFF858183800FFF7E9FA0028FF
:104870004ED10522DFF84C183800FFF78DFDDFF828
:1048800018088079012802D17878401C78700B22B2
:10489000DFF8341817F10A052800FFF77DFDF87CD2
:1048A0007871387DB871B87AF871F87A2038387232
:1048B000387B20387872B87BB872F87BF8727879D8
:1048C000202801D13020B872B87A202801D13020B8
:1048D000B8720C37DFF8C007007B002803D0042033
:1048E00038707F1C02E0032038707F1CDFF8CC0793
:1048F000407E002801D1012000E0002038701034F3
:10490000DFF8980784710120DFF89017087094E3AE
:104910000622DFF8B01B3800FFF73EFDBF1D032065
:1049200038707F1C0222DFF86C173800FFF734FD67
:10493000BF1C0222DFF8901B3800FFF72DFDBF1CC3
:104940000222DFF8881B3800FFF726FDBF1CC420B9
:1049500038707F1CB12038707F1C252038707F1C78
:10496000552038707F1C002038707F1CDFF84C0702
:1049700090F8200038707F1CDFF83C0740793870D1
:104980007F1CDFF83407807838707F1CDFF8280739
:1049900000785A2802D043F6FF7A0CE0DFF81807B7
:1049A000C078DFF81417B1F806A05FEA8A5A5FEA08
:1049B0009A5A5AEA802A87F800A07F1C1FFA8AFABE
:1049C0005FEA1A2A87F800A07F1CDFF8F00BC08886
:1049D00038707F1CDFF8E40BC08880B2000A3870A2
:1049E0007F1CDFF8D406407E38701D34DFF8AC063B
:1049F00084713878042801DB002038703C78E4B2F8
:104A0000002C73D07F1CDFF8B006807E38703878B9
:104A1000072801DB002038703E787F1C002507E066
:104A2000DFF89406EDB22844C07E38707F1C6D1C00
:104A3000EDB2F6B2B5EB460FF2DBDFF86006807937
:104A4000F6B210EB4600DFF854168871E4B2022C7F
:104A50004CDBDFF8640690F82700387038780728B8
:104A600001DB002038703E787F1C002508E0DFF86D
:104A70004806EDB2284490F8280038707F1C6D1C61
:104A8000EDB2F6B2B5EB460FF1DBDFF81006807938
:104A9000F6B210EB4600DFF804168871E4B2032C7E
:104AA00024DBDFF8140690F83400387038780728D3
:104AB00001DB002038703E787F1C002508E0DFF81D
:104AC000F805EDB2284490F8350038707F1C6D1C55
:104AD000EDB2F6B2B5EB460FF1DBDFF8C005807939
:104AE000F6B210EB4600DFF8B41588710120DFF84C
:104AF000AC150870A1E25FFA89F9B9F1020F07D18C
:104B0000EDB2022D04D10320DFF890150870BCE24D
:104B100098F80000000736D598F80200052832D131
:104B200098F80300C42818D198F80400252802D06A
:104B300006F028FA3CE0002088F80000002088F801
:104B40000200002088F803000420DFF85015887167
:104B50000120DFF8481508702AE00020DFF838153A
:104B60008870002088F80000012088F802000020EA
:104B700088F803000420DFF8241588710120DFF88D
:104B80001C15087014E00120DFF80C158870002057
:104B900088F80000012088F80200002088F803004F
:104BA0000420DFF8F81488710120DFF8F014087091
:104BB00043E2002088F80000002088F8020000206E
:104BC00088F803000420DFF8D41488710120DFF88E
:104BD000CC14087031E20024EDB2022D04D1032080
:104BE000DFF8B814087028E201F0ACFD002804D00A
:104BF0000320DFF8A81408701FE2DFF8C00900786E
:104C0000002840F0FB8002F08DF9002840F0F6808B
:104C10007878DFF8AC190978884200F0EF8078786E
:104C2000DFF89C19087097F8038018F003085FEA12
:104C30000828B87850EA080897F803905FFA89F9CD
:104C40005FEA990919F00F09DFF87009A0F80A80E6
:104C5000DFF86404C0881430DFF86019C880DFF81A
:104C60005804C088DFF854190881DFF84C048078B4
:104C70004000DFF848190871DFF82004C078DFF839
:104C80003C194871DFF834090089B870DFF82C0945
:104C9000008980B2000A10F00300F870F878DFF89D
:104CA0001814C978890011F03C010843F870DFF846
:104CB000EC034079002874D106F0A2FBDFF8DC1386
:104CC000D1F82AA0B0EB0A0A1AF1410AEDB2002D80
:104CD00001D04FF0FF09DFF8E003C0785FFA89F9EF
:104CE000814509D2DFF8D4080089804504D25046B6
:104CF00080B206F08DFB3400F879DFF8C818086040
:104D0000DFF8C00800680002DFF8B8180860DFF8B4
:104D1000B4080168B8790143DFF8A8080160DFF83A
:104D2000A40800680002DFF89C180860DFF8940807
:104D3000016878790143DFF88C080160DFF88408A6
:104D400000680002DFF87C180860DFF87808016866
:104D500038790143DFF86C0801604FF4967000FB6E
:104D600008F8DFF860080068B0EB0808DFF85408BE
:104D7000C0F80080DFF84C0800681FFA8AFAB0EB30
:104D80000A0ADFF84008C0F800A0DFF83808006819
:104D90004FF47A71B0FBF1F0DFF8281808600025B5
:104DA00001E072E16D1CEDB20A2D27DAEDB207EBDE
:104DB0000500007A6828F5D1F6B2EDB215F10A00C7
:104DC000864204DA0020DFF80018087005E0B6F12A
:104DD0000A00401BDFF8F0170870DFF8EC070278D4
:104DE000EDB207EB050010F10801DFF8E0572800ED
:104DF000FFF7D2FA0020DFF8D8170870E4B2002CD1
:104E000003D10320A549087004E0A448867104205A
:104E1000A249087011E13A78791CA748807800F01F
:104E200057FB03209D49087007E17878462802D196
:104E3000B878432803D0032098490870FDE0F8783B
:104E4000062811D18620F87093480078002802D1F6
:104E50003420387101E00020387107208F498871B3
:104E600001208E49087002E003208C490870E4E0BC
:104E7000F12038707F1C3D7815F00F050320387045
:104E80007F1C042085498871102038707F1C012008
:104E900038707F1C0622DFF8181C3800FFF77CFAF8
:104EA0007D48807C7C49097BC90011F0080151EAEA
:104EB00000117948C07910F007000143B9717748B3
:104EC0008079093075498871012074490870B4E00F
:104ED000832038707048C078012815D1781C00F004
:104EE00043FD6E4988716D488079002808D06B4871
:104EF0008079C01C6949887101206849087012E0F6
:104F00000320664908700EE0002088F802000020A7
:104F100088F80000002088F8030004205F498871A9
:104F200001205E49087088E0852038705A48C078B2
:104F3000012815D1781C00F039FE5849887157486E
:104F40008079002808D055488079C01C5349887161
:104F500001205249087012E00320504908700EE009
:104F6000002088F80200002088F80000002088F85F
:104F700003000420494988710120484908705CE019
:104F8000DFF8300B0078C31EDBB2DFF82C2B434870
:104F900090F821104148807806F002FEC82008F001
:104FA000EAFA03203D49087047E05FFA89F9B9F150
:104FB000020F06D1EDB2022D03D10320374908704C
:104FC00063E0F6B2E4B2321B791C394D2800FFF7DA
:104FD000E3F935203870387A787004202F498871C9
:104FE00001202E490870361B3100C9B2304804F048
:104FF00057F8050021E05FFA89F9B9F1020F06D1EF
:10500000EDB2022D03D10320244908703DE0372082
:105010003870361B3100C9B2781C04F0B8FB1F4948
:1050200088711E488079C01C1C49887101201B4969
:10503000087002E003201949087026E0387800283B
:1050400002D0012801D016E018E07878DFF8581B6C
:10505000C97888420ED1DFF8500B0078022803D1BE
:105060000420DFF8441B087002F0CAF8002801D0C1
:1050700002F0B5F802E00320084908700320074950
:10508000087002E0032005490870BDE8F0870000C1
:10509000203C00207C380020FC3A0020A03A002070
:1050A000681200207D3C00207A3C00207B3C0020E0
:1050B000743700207C3C002074380020C839002060
:1050C000A01901080C210008D01901082DE9F047AA
:1050D00082B00700894600245FF000080020ADF888
:1050E00000000020ADF802005FFA89F9B9F1000F65
:1050F00001D10020E4E16A464946C9B2380005F012
:1051000095FE012801D100250CE06A465FFA89F975
:10511000494689B2380005F0D0FE012801D10125A9
:1051200000E00225DFF8880B0078002800F0B4804A
:105130000020DFF87C1B087001E005F056FEDFF868
:10514000740B00880028F8D108F0BCFB06F058F971
:10515000060005F04AFE16F57A7A06F051F9BAEB28
:10516000000ABAF1000F04D5E4B2002C01D10024EA
:105170003AE0E4B2002C06D0DFF83C0B00780028BF
:1051800001D1002430E02000C0B2DFF8301B0988D4
:1051900080B28842DDD0DFF8240B04880DF10202D2
:1051A000E4B2210089B2DFF8180B05F086FE012871
:1051B00035D00DF102022100C9B2DFF8040B05F071
:1051C00035FE0128C5D1DFF8F40A0088BDF8024099
:1051D000041BDFF8E80A0188BDF80200091ADFF8AD
:1051E000DC0A0180BDF80280E4B2002C6ED0E4B28B
:1051F000210089B2DFF8C80A08F04EFC0026EDB2A3
:10520000002D1ED10DF10202DFF8B80A0178DFF897
:10521000B80A05F00BFE012825D1012623E0DFF8AE
:105220009C0A0088BDF80240041BDFF8900A018840
:10523000BDF80200091ADFF8840A0180BDF8028077
:10524000D2E7EDB2012D0DD10DF10202DFF8740AA3
:10525000017889B2DFF8700A05F02FFE012802D12B
:10526000012600E00026F6B2002E13D05FFA89F97D
:10527000BDF80020B9EB0202DFF84C0ABDF80210BD
:105280000144BDF800003844FEF7DAFD00281DD0C7
:1052900000241BE0002419E004F0A3FB002815D033
:1052A00004F092FB002811D1052004F08AFB06F0DF
:1052B000A7F8060001E005F098FD16F5FA7A06F069
:1052C0009FF8BAEB000ABAF1000FF4D508F0FAFA29
:1052D000E4B2002C40F09780FE20DFF8E41908705B
:1052E000FE20DFF8DC194870FE20DFF8D419887042
:1052F000FE20DFF8CC19C8705FFA89F9BDF80020EC
:10530000B9EB0202BDF8000007EB0001DFF8BC6951
:105310003000FFF741F85FFA89F919F10409BDF887
:105320000000B9EB0009494689B2DFF8940906F09C
:1053300073FB06F065F8060008F0C4FA05F055FDA9
:1053400006F6C41906F05CF8B9EB0009B9F1000FD4
:1053500002D5E4B2002C31D0E4B2002C04D0DFF846
:105360005809007800282BD02000C0B2DFF84C1973
:10537000098880B28842DFD0DFF840090488EDB2A6
:10538000012D26D16A46E4B2210089B2DFF8300946
:1053900005F093FD0128CFD1DFF820090088BDF882
:1053A0000040041BDFF814090188BDF80000091A49
:1053B000DFF808090180BDF8008024E000207FE0CC
:1053C000EDB2022D03D1DFF8F40804881BE00020C1
:1053D00076E06A462100C9B2DFF8E40805F026FD50
:1053E0000128A9D1DFF8D4080088BDF80040041BCB
:1053F000DFF8C8080188BDF80000091ADFF8BC080A
:105400000180BDF80080E4B2002C45D0DFF8C00870
:10541000D0F82200381AE4B2201880B2FD280CD34C
:10542000001DDFF8B0180870F020DFF8AC18087025
:10543000DFF8A0080078241A07E00020DFF89418AD
:1054400008700020DFF890180870E4B2DFF87008E8
:105450005FFA88F800EB080122003800FEF79CFF95
:10546000E4B2DFF870080278121992B2DFF850083F
:105470005FFA88F800EB0801DFF84408FEF753FEF6
:10548000E4B2DFF8500802781219DFF83418DFF8B8
:105490004C582800FEF780FF72B60020DFF8401855
:1054A00008800020DFF83C1808800020DFF80C1886
:1054B00008800020DFF83018087062B62000C0B203
:1054C000BDE8F687C939002084380020142100087F
:1054D000F8B504000D0016004320DFF8E41708714A
:1054E000CD20DFF8DC174871DFF8E407007FDFF834
:1054F000D0178871DFF8D807007F401CDFF8D0177D
:1055000008770222DFF8E417DFF8E4773800FEF7C7
:1055100043FF0622DFF89815DFF8D8773800FEF74A
:105520003BFF0622DFF88815DFF8CC773800FEF75E
:1055300033FFDFF88C074675F6B2102E20D1DFF866
:10554000800784752878DFF87817C875DFF870074A
:10555000C07DE72803DBE620DFF86417C875DFF8B5
:105560006007C27D691CDFF894472000FEF714FF36
:10557000DFF84C07C07D1730DFF8441708700AE0E9
:10558000DFF83C0784752878DFF83417C8751720D2
:10559000DFF82C170870DFF8380740790090DFF843
:1055A0003007C378DFF828078278DFF8140701781E
:1055B000DFF8180709F05EF9F1BD00005C3B002040
:1055C0007E3C00200C3C002064390020653900201E
:1055D0007F3C0020F8B504000D00160036B2012E05
:1055E0000FDB7019471E36B2701E3FB2B8421EDA8A
:1055F00036B2704220443FB2C05D3FB2E0557F1EDC
:10560000F1E736B2002E10D500273FB2ADB2AF425F
:105610000DDA36B2300009F055FD3FB2E15D40428F
:1056200020443FB2C1557F1CEFE7012002E075190D
:10563000280080B2F2BDF8B504000D000026002756
:105640002DE0BFB2E05D7D2828D10122290089B27A
:10565000BFB204EB0700401CFFF7BCFF7D20BFB2C8
:10566000E0555D20BFB204EB07014870761C15E0E1
:10567000BFB2E05D7E28E4D10122290089B2BFB229
:1056800004EB0700401CFFF7A5FF7D20BFB2E055EB
:105690005E20BFB204EB07014870761C7F1C380007
:1056A000290080B289B28842E2D37519280080B2FD
:1056B000F2BDF8B504000D000026002730E0BFB2AF
:1056C000E05D7D2813D1BFB204EB070040785E286F
:1056D0000DD15FF0FF32290089B2BFB204EB0700A1
:1056E000401CFFF777FF7E20BFB2E055761CBFB2AB
:1056F000E05D7D2813D1BFB204EB070040785D2840
:105700000DD15FF0FF32290089B2BFB204EB070070
:10571000401CFFF75FFF7D20BFB2E055761C7F1C69
:105720003800290080B289B28842C8D3AD1B280056
:1057300080B2F2BDF8B503000C0000201070E4B296
:10574000FF2C02D0E4B20A2C01DA0020DDE00021B7
:1057500000E0491C08002600F6B280B2B6B2B042A2
:105760003AD289B2585C822831D189B203EB010068
:1057700040780328EDD189B203EB0100807800283E
:10578000E7D189B203EB0100C0789F28E1D189B24B
:1057900003EB010000798B28DBD189B203EB010018
:1057A00040798128D5D189B203EB0100807909289D
:1057B000CFD189B203EB0100C0790128C9D189B2E8
:1057C00003EB0100007A7E28C3D1082504E089B2EA
:1057D000585C7E28BDD1002589B203EB0100EDB2F3
:1057E0002844407889B203EB0106EDB22E44B67826
:1057F000F6B2B609F6B256EA800689B203EB0100AA
:10580000EDB22844807810F03F0011701178EDB2AD
:10581000691800E0491C89B2E4B2271FB9423ADA9C
:1058200089B203EB01077F78FF2FF3D189B203EB35
:105830000107BF78FF2FEDD189B203EB0107FF7895
:10584000FF2FE7D189B203EB01073F797E2FE1D12A
:105850001078091AEDB2491B091DEDB2082D0AD1C5
:10586000491E89B210781844EDB22844401CFFF755
:10587000E2FE010009E0491E89B210781844EDB239
:105880002844401CFFF715FF0100EDB2AD1C69185C
:105890000800C0B239E0C0B21F2811D1EDB203EB4D
:1058A0000500C078EDB203EB05067779EDB21D4433
:1058B0002E7956EA072600062AD507252BE0491C33
:1058C00089B2E4B2201F81421EDA89B203EB0100E3
:1058D0004078FF28F3D189B203EB01008078FF28DC
:1058E000EDD189B203EB0100C078FF28E7D189B27E
:1058F00003EB010000797E28E1D189B21078091A02
:10590000B6B2F61CB14201D10020F2BD0020FCE786
:10591000002500E0491C89B2E4B2201F8142F3DA7D
:1059200089B203EB01004078FF28F3D189B203EB81
:1059300001008078FF28EDD189B203EB0100C07827
:10594000FF28E7D189B203EB010000797E28E1D17D
:1059500089B21078091AB6B2EDB2AE19B61DB142CD
:10596000D2D00020D1E700002DE9F04F87B005002C
:1059700001A8DFF88C131422FEF71EFD0326002079
:105980008DF800004FF47A7700245FF000085FF094
:1059900000091AE005F029FADFF8680300880028FA
:1059A000F8D105F02DFD824605F01FFA17EB0A0B22
:1059B00005F026FDBBEB000BBBF1000F12D5E4B2E6
:1059C000002C0FD1002419F1010948463100C0B262
:1059D000C9B288425BD207F075FF142101A808F014
:1059E0005BF8D9E7E4B2002C05D0C748007800285E
:1059F00001D10024E7E72000C0B2C449098880B281
:105A00008842D1D0C14804886A46C0480188C9B2DA
:105A1000AD48FFF78FFE0028C6D0AB489DF80010B8
:105A2000084490F82B002870A7489DF800100844FF
:105A300090F82C006870A4489DF80010084490F875
:105A40002D00A870A0489DF80010084490F82E0082
:105A5000E870002028719C489DF8001008444079A7
:105A6000687199489DF8001008448079A8715FF02A
:105A7000070872B60020A64908800020A5490880C2
:105A80000020A249088062B64046C0B20CE072B65F
:105A900000209F49088000209E49088000209B49E3
:105AA000088062B64046C0B207B0BDE8F08F000083
:105AB000F43B0020403400204434002080B5C0B2C4
:105AC000092865DA002240F22551934809F0BCFB11
:105AD0000021914809F0AAFB9048006830F48070DA
:105AE0008E4908604FF480708D4908608C480068CA
:105AF00030F400708A4908604FF4007087490860EC
:105B00008848006830F40060864908604FF40060FF
:105B1000854908608348006830F4805081490860F6
:105B20004FF48050804908607E480068400840007B
:105B30007C49086001207C4908607C48006830F49A
:105B400070407A4908607948006850F440507749BD
:105B500008607448006830F0080072490860082046
:105B6000714908607148006830F470606F490860DE
:105B70006E48006850F440706C49086069480068DD
:105B800030F004006749086004206749086009E0B4
:105B90006348006830F48070614908604FF4807099
:105BA0005E49086001BD0000183C00202DE9F04F5F
:105BB00089B0050001A85E491C22FEF7FDFB032603
:105BC00000208DF800004FF47A7700245FF0000881
:105BD0005FF0000919E005F008F94A48008800283C
:105BE000F9D105F00DFC824605F0FFF817EB0A0B22
:105BF00005F006FCBBEB000BBBF1000F12D5E4B2C5
:105C0000002C0FD1002419F1010948463100C0B21F
:105C1000C9B288423BD207F055FE1A2101A807F00D
:105C20003BFFDAE7E4B2002C05D0374800780028C3
:105C300001D10024E7E72000C0B23449098880B2CE
:105C40008842D1D0314804886A4630480188C9B2B8
:105C50001D48FFF76FFD0028C6D01E221A489DF888
:105C60000010084410F110012800FEF795FB5FF0CA
:105C70001E0872B6002026490880002025490880A9
:105C800000202249088062B64046C0B20CE072B6DD
:105C900000201F49088000201E49088000201B4961
:105CA000088062B64046C0B209B0BDE8F08F00007F
:105CB0008C3C00205E3C0020883C0020603C0020A2
:105CC000681200208D3C0020680A00206C12002021
:105CD000A03A00207C3C00207D3C0020743700204E
:105CE000643C0020623C0020813C00207C38002085
:105CF0006F12002071120020771200208012002005
:105D00008C1901085A3C0020803C0020583C00209F
:105D1000543C0020563C002000440040140C01403C
:105D2000100C014010080140140801400008014017
:105D30001019010810B50C000021DFF8CC0B02F09F
:105D40007FFC9621DFF8C40BB0F80720A4B289B21B
:105D500094FBF1F08218DFF8B40BA0F80720A4B28E
:105D600089B294FBF1F001FB104400F021FC00F03B
:105D70004DFC032000F04FFCDFF8900BB0F805005D
:105D8000DFF8881BB1F8091088421AD302F0EFFE41
:105D9000DFF87C1B0968B1F8052092B2920A92B232
:105DA00090FBF2F102FB1101DFF8640B0068B0F820
:105DB00005008005800DC9B20918DFF8500BA0F866
:105DC0000510A4B21E204443DFF8480B04800121D3
:105DD000DFF8340B02F034FC00F0B7FC10BD00001B
:105DE0002DE9F04105000E0014001F0000F0AAFC90
:105DF000002840F09881E4B2002C40F09481DFF854
:105E0000180BC078002800F08E81DFF8100B0078A6
:105E10005A2840F08881DFF8080B807A062804D1E0
:105E2000DFF8FC0A407A062800D07CE10622FF2138
:105E3000DFF8F00A0068401DFEF760F9002840F026
:105E40007281DFF8E00A0068C078DFF8D01A097ABA
:105E5000884208D1DFF8CC0A00680079DFF8BC1A64
:105E6000497A884200D05EE1DFF8B40AD0F8260013
:105E7000DFF89C1A0860DFF8980A00684078DFF8BD
:105E80009C1A91F84410884240F04D81DFF8900A46
:105E9000417ADFF88C0A807A4118FFB27F187F1DA3
:105EA000F6B2F01BC41FA4B2792C00DB782400F0FA
:105EB00084FBC0B2002835D0C0B201282AD1DFF857
:105EC0004C0A8078012804D0DFF8400A8078022844
:105ED0001FD1DFF8540ADFF84C1A0860DFF84C2AAB
:105EE00000210FE0C9B202EB0100C379DFF8200AFC
:105EF0000068C9B20844C0790343C9B202EB01008B
:105F0000C371491C0800C0B2230080B29BB2984202
:105F1000E8D308E10020DFF8181A08700020DFF845
:105F2000101A4870DFF8E80900680078012840F08E
:105F3000FA80DFF8DC0900688078DFF8D019097B87
:105F4000884200F0F080DFF8C80900688078DFF848
:105F5000BC1908730021DFF8B00902F071FBF6B23A
:105F6000DFF8C489320029004046FEF715FADFF851
:105F7000B809DFF8B0190860DFF8B809BFB23844D3
:105F8000001DDFF88C1908600622DFF8AC19DFF875
:105F90009409006810F10B052800FEF7FDF9DFF801
:105FA0007C09C18889B2C908DFF87009C288082352
:105FB00092FBF3F003FB10200A00D2B2230092B24E
:105FC0009BB29A420FD2DFF848291268C9B20A443C
:105FD000D279012313FA00F01043DFF83429126854
:105FE000C9B21144C871DFF854090473DFF82009FD
:105FF0000068B0F8050080B2800A80B202280CDA8E
:106000000220DFF80C190968B1F8051060F38F2140
:10601000DFF8FC080068A0F8051072B6DFF8F00899
:106020000068B0F805008005800DDFF8E418096805
:10603000B1F8051089B210EB9120DFF8D018A1F863
:106040000900DFF8CC080068B0F80300DFF8BC18DE
:10605000A1F807000020DFF8B418C872DFF8BC0808
:10606000C088DFF8A818A1F80500DFF8A008B0F88C
:106070000700DFF89818B1F8051088421AD302F02B
:1060800076FDDFF88C180968B1F8052092B2920A03
:1060900092B290FBF2F102FB1101DFF87408006884
:1060A000B0F805008005800DC9B20918DFF85C085A
:1060B000A0F80510DFF85408B0F80500DFF8501814
:1060C0000968A1F80300DFF848080068B0F8050087
:1060D0008005800DDFF83418A1F80D00DFF83008D6
:1060E0000068B0F8050080B2800ADFF82018C87395
:1060F0000120DFF8181888700120DFF810180874E4
:1061000062B605F07DF9DFF81818D1F82A10411AA7
:10611000423189B20020FFF70DFE0020DFF8EC17B6
:10612000887401F05CF8BDE8F08100002DE9F041D1
:1061300005000E001F00D2B2002A40F0EC81DFF80B
:10614000D807C078002800F0E681DFF8D007007893
:106150005A2840F0E081DFF8C807807A062804D189
:10616000DFF8BC07407A062800D0D4E10622FF21E0
:10617000DFF8B0070068401DFDF7C0FF002840F0C1
:10618000CA81DFF8A0070068C078DFF89017097AA5
:10619000884208D1DFF88C0700680079DFF87C17A7
:1061A000497A884200D0B6E1DFF87407D0F82600BB
:1061B000DFF85C170860DFF8580700684078DFF800
:1061C0005C1791F84410884240F0A581DFF8500731
:1061D000417ADFF84C07807A4118FFB27F187F1DA3
:1061E000F6B2F01BC41FA4B2792C00DB7824DFF8D0
:1061F00020070068007803282BD100F0A3FA0028BC
:1062000040F08981DFF8080700688078DFF8FC1625
:10621000097B884200F07F81DFF8F406006880780F
:10622000DFF8E816087300F0C8F9C0B2002800F0E3
:10623000AB80C0B2012840F09F80DFF8D0068078A4
:10624000032827D1DFF8C80600680078032819D191
:1062500061E1DFF8BC0600680078042811D1DFF89E
:10626000AC06B0F80500DFF8A8160968B1F803100D
:10627000884280F05081DFF8940600780028D2D15F
:1062800049E148E1DFF8880600680078042800F05A
:10629000428140E1DFF874068078042874D1DFF889
:1062A000700600680078032804D10020DFF85C162F
:1062B000487469E0DFF858060068007804285AD16D
:1062C000DFF86406DFF85C160860DFF86806BFB226
:1062D0003844061D00250FE0EDB206EB0500C1793C
:1062E000DFF82C060068EDB22844C0790143EDB216
:1062F00006EB0500C1716D1C2800C0B2210080B200
:1063000089B28842E8D3DFF81406C588ADB2ED083B
:10631000DFF80806C088082190FBF1F701FB17079A
:1063200000F007FA002812D02800C0B280B2A4B250
:10633000A0421FD2EDB206EB0500C079012111FA8F
:1063400007F70743EDB206EB0500C77112E028001E
:10635000C0B280B2A4B2A0420CD2EDB206EB0500EE
:10636000C079012111FA07F730EA0707EDB206EB11
:106370000500C771CFE0CEE00020DFF8B41508704B
:106380000020DFF8AC154870F6B2DFF89C853200CB
:1063900029004046FEF700F8DFF88C05DFF8841589
:1063A0000860DFF89005BFB23844001DDFF86015C3
:1063B00008600622DFF88015DFF86805006810F134
:1063C0000B052800FDF7E8FF0020DFF84015C87234
:1063D000DFF83C0500680078032840F09E8000212B
:1063E000DFF8240502F02CF90320DFF8201588706F
:1063F000DFF81C050068B0F8050080B2800A80B2A2
:1064000002280CDA0220DFF808150968B1F8051037
:1064100060F38F21DFF8F8040068A0F8051072B669
:10642000DFF8EC040068B0F805008005800DDFF8A7
:10643000E0140968B1F8051089B210EB9120DFF87B
:10644000CC14A1F80900DFF8C8040068B0F8030014
:10645000DFF8B814A1F80700DFF8C004C088DFF83F
:10646000AC14A1F80500DFF8A404B0F80700DFF8C9
:106470009C14B1F8051088421AD302F078FBDFF8BB
:1064800090140968B1F8051089B2890A89B290FBA5
:10649000F1F501FB1505DFF878040068B0F8050098
:1064A0008005800DEDB22D18DFF86004A0F80550CE
:1064B000DFF85804B0F80500DFF854140968A1F8B3
:1064C0000300DFF84C040068B0F805008005800D7B
:1064D000DFF83814A1F80D00DFF834040068B0F8D4
:1064E000050080B2800ADFF82414C8730120DFF8A9
:1064F0001C14487462B604F083FFDFF82414D1F84A
:106500002A10411A423189B20020FFF713FC002003
:10651000DFF8F8138874BDE8F081DFF8F403006851
:106520000078042843D10420DFF8E013887000F0DD
:1065300000F9002823D0DFF8E403C588ADB2ED08E8
:10654000DFF8D803C088082190FBF1F701FB17079B
:106550002800C0B2210080B289B288420FD2DFF891
:10656000B0030068EDB22844C079012111FA07F7A1
:106570000743DFF89C030068EDB22844C771DFF8D9
:106580008C03B0F80500DFF888130968A1F8030050
:1065900000F00EF800F03AF8032000F03CF8DFF8C5
:1065A0009C0304730120DFF864134874B3E7B2E777
:1065B0000120DFF85813487070470020DFF870138F
:1065C0000978002904D1DFF868134978002907D039
:1065D0000021DFF85C2311700021DFF85423517093
:1065E000DFF8381C4978002900D00120C0B270477C
:1065F0000020DFF8281C487070470120DFF8201CBD
:1066000008707047DFF8180C007870470020DFF83A
:10661000101C0870704780B5C0B204F0F5FE01BDD3
:1066200080B5FFF7EFFF002800F08280FFF7EEFF54
:10663000DFF8E80B407C00282FD0DFF8E00B8078F3
:10664000032804D0DFF8D40B8078042825D100205B
:10665000DFF8C81B4874B14880784000DFF8BC1BE5
:10666000C8701820AE494876DFF8B00B807804284F
:1066700006D1AB48417EB148007B4118A84841761D
:10668000002000900223DFF8940BC278A448417EDA
:10669000A54808F0EFF8FFF7ABFFDFF8800B007CB0
:1066A000002845D0DFF8740B8078012804D0DFF88B
:1066B0006C0B807802280DD1984880784000DFF874
:1066C0005C1BC87000209649C8769C48007B183037
:1066D00093494876002000900223DFF8400BC278EF
:1066E0008F48417E904808F0C5F8DFF8300B80787D
:1066F000012812D18C488B4908608C488449086075
:1067000002208349096808700220DFF8101B887096
:106710000120DFF8081BC8720AE0DFF8000B807860
:10672000022805D10020DFF8F41A0874FFF760FF93
:1067300001BD82480078012801D1012000E000203D
:10674000C0B270477D48007870470120DFF8CC1A4E
:10675000087070470020DFF8C41A0870704738B519
:10676000724CDFF8B80AB0F80D00C01DC0107349B4
:1067700008737248007B792802DB78206F49087320
:10678000FFF71BFFC0B2002839D0C0B2012830D1BA
:10679000DFF8880A8078032801D10020B3E0DFF811
:1067A0007C0A8078042822D1FFF7C3FF00281CD080
:1067B0005A48C08880B2C0085849CA88082392FB4A
:1067C000F3F103FB112102005C4B1B7B92B29BB2E5
:1067D0009A420AD280B204EB0002D279012313FA62
:1067E00001F1114380B22044C17101208BE00020EF
:1067F00089E000204E49087000204D4948704A4801
:10680000484908604520474909680870CD20454936
:1068100009684870434800688078401C414909680D
:1068200088703E48007A3F490968C8703B48407A02
:106830003C49096808710621FF223A480068451D55
:10684000280002F015FB06223B493648006810F18B
:106850000B052800FDF7A0FD042020702F4890F8BC
:1068600044006070DFF8B409007BA070DFF8AC0969
:10687000B0F80500A4F80300DFF8A009B0F80D0097
:10688000B4F8051060F30901A4F80510DFF88C09CD
:10689000C07BB4F8051060F38F21A4F805102748D9
:1068A000017B0022E51D280002F0E2FA1B48C088A7
:1068B00080B2C0081949CA88082392FBF3F103FB90
:1068C000112102001D4B1B7B92B29BB29A420AD24D
:1068D00080B204EB0002D279012313FA01F11143D3
:1068E00080B22044C1710420DFF830198870FFF7AE
:1068F0005FFEFFF78BFE0320FFF78DFE0120DFF820
:106900001C194874012032BD000800409C3B002047
:106910004C3C002024080040FC3A00207438002041
:10692000A03A0020203C002074360020853600204C
:106930005C3B002070360020F43B0020403B0020F0
:1069400080B5DFF8E008807B00280ED0022800F038
:10695000F9802FD3042800F0ED81C0F02B810628A8
:1069600000F03882C0F0178252E204F049FDDFF8EF
:10697000B418D1F80F10C831081A012880F24C82DF
:10698000DFF8A4080078002813D00020DFF898185A
:1069900008700020DFF88C1808700120DFF88418D8
:1069A000C8700020DFF87C1848730120DFF87418E5
:1069B000887331E2DFF86C08007801281AD104F0FE
:1069C0001FFDDFF86018C1F80F00022008F0DAFEA2
:1069D000DFF85808006830F40060DFF850180860ED
:1069E0004FF40060DFF8481808600220DFF8341820
:1069F0008873A6E0DFF82C080078032840F0938025
:106A0000002240F22551DFF82C0808F01DFC00217F
:106A1000DFF8200808F00AFCDFF81C08006830F4F2
:106A20008070DFF8141808604FF48070DFF80C18DD
:106A30000860DFF80808006830F40070DFF8FC1721
:106A400008604FF40070DFF8F0170860DFF8E00727
:106A5000006830F40060DFF8D81708604FF4006079
:106A6000DFF8C8170860DFF8C807006830F4805006
:106A7000DFF8BC1708604FF48050DFF8B0170860EB
:106A8000DFF8AC07006840084000DFF8A417086092
:106A90000120DFF898170860DFF8A407006830F4D9
:106AA0007040DFF89C170860DFF89407006850F426
:106AB0004050DFF88C170860DFF87407006830F08A
:106AC0000800DFF86C1708600820DFF8601708601E
:106AD000DFF86C07006830F47060DFF86417086056
:106AE000DFF85C07006850F44070DFF85417086066
:106AF000DFF83C07006830F00400DFF83417086066
:106B00000420DFF8281708600120DFF81817487301
:106B100004F076FCDFF80C17C1F80F000520DFF851
:106B2000041788730DE0DFF8FC060078022808D10E
:106B3000DFF8F4060078002803D00620DFF8E4161A
:106B4000887369E104F05CFCDFF8D816D1F80F1007
:106B500011F5FA61081A012880F25E81DFF8C80693
:106B60000078002803D00620DFF8B8168873DFF815
:106B7000AC06007800280FD0FFF7F1FD00280BD0FD
:106B8000DFF8A006C078002806D0DFF89806C078A5
:106B9000401EDFF89016C87004F032FCDFF884164F
:106BA000C1F80F00DFF87C06807B401CDFF874160C
:106BB000887331E1DFF870060078002803D00620E2
:106BC000DFF86016887304F01BFCDFF85816D1F864
:106BD0000F1001F5B8517031081A002840F1A98052
:106BE000DFF8600600785A2840F09C80DFF82C0619
:106BF0000078002800F09680002240F22551DFF84E
:106C0000340608F021FB0021DFF8280608F00EFB0F
:106C1000DFF82406006830F48070DFF81C16086086
:106C20004FF48070DFF814160860DFF81006006873
:106C300030F40070DFF8041608604FF40070DFF8DD
:106C4000F8150860DFF8E805006830F40060DFF848
:106C5000E01508604FF40060DFF8D0150860DFF839
:106C6000D005006830F48050DFF8C41508604FF498
:106C70008050DFF8B8150860DFF8B40500684008F8
:106C80004000DFF8AC1508600120DFF8A0150860AF
:106C9000DFF8AC05006830F47040DFF8A415086038
:106CA000DFF89C05006850F44050DFF89415086048
:106CB000DFF87C05006830F00800DFF87415086024
:106CC0000820DFF868150860DFF87405006830F404
:106CD0007060DFF86C150860DFF86405006850F438
:106CE0004070DFF85C150860DFF84405006830F09C
:106CF0000400DFF83C1508600420DFF83015086058
:106D0000002008F03FFDDFF82805006830F400603F
:106D1000DFF81C1508604FF40060DFF810150860FC
:106D200000F003F9DFF8FC04807B401CDFF8F4146A
:106D3000887371E0DFF8F0040078002803D00620A3
:106D4000DFF8E014887304F05BFBDFF8D814D1F8A7
:106D50000F1001F56A416031081A00281AD5DFF8D2
:106D6000BC04007800280FD1DFF8B804C0780028F0
:106D70000AD0DFF8B004C078401EDFF8A814C8704D
:106D80000220DFF8A014C87204F03AFBDFF8941474
:106D9000C1F80F0040E0DFF890040078002803D02D
:106DA0000620DFF88014887304F02AFBDFF87414DF
:106DB000D1F80F1001F6B831081A002809D504F0EF
:106DC0001FFBDFF86014C1F80F0008F0FFFD08F0AA
:106DD0000FFE21E004F076F900F0F7F9032000F04F
:106DE00002FA002008F0CEFCDFF84404006830F41A
:106DF0000060DFF83C1408604FF40060DFF82C14EA
:106E0000086000F092F80020DFF81814887303E09F
:106E10000020DFF81014887301BD80B50020DFF872
:106E2000FC13B1F80710491CDFF8F023A2F8071093
:106E3000DFF8E813B1F80710DFF8E023B2F8092013
:106E4000914210D30021DFF8D423A2F80710DFF815
:106E5000CC13C97A002906D0DFF8C013C97A491EBD
:106E6000DFF8B823D172DFF8B413097C002904D10C
:106E7000DFF8A813497C002930D0DFF8A013897807
:106E8000022904D0DFF894138978042911D1DFF89E
:106E90008C13B1F80720DFF88413B1F809305B1EBA
:106EA000DFF87813B1F805105B1A9A4216D1012069
:106EB00014E0DFF868138978012904D0DFF85C1347
:106EC000897803290AD1DFF85413B1F80510DFF8E7
:106ED0004C23B2F80720914200D10120DFF83C1387
:106EE000C97A002908D1C0B2002805D0FFF78AFB73
:106EF000002801D1FFF781FB01BD80B50121DFF83A
:106F0000480301F0FAFB00280BD00121DFF8380319
:106F100001F007FC0121DFF8300301F0EAFBFFF785
:106F20007CFF01BDBD484078704700B585B04FF487
:106F30008050ADF8040004208DF8070001A9C04876
:106F400008F078FD0C21002008F01DFE4FF4805061
:106F5000029000208DF80C000C208DF80D0001200F
:106F60008DF80E0002A808F03FFE4FF4C06008F054
:106F70009DFE28208DF8000000208DF801000820DB
:106F80008DF8020001208DF80300684608F093FE9A
:106F900005B000BD00B587B001214FF4017008F0C5
:106FA0005CFF4FF4404008F0E1FE0220ADF8000025
:106FB00000208DF803006946A14808F03BFDA34876
:106FC00008F0A4FF0020019000208DF808000020A8
:106FD0008DF809005FF460200390002004900120E8
:106FE0008DF8140001A9994808F0BEFF01219748C7
:106FF00008F0DFFF954808F0E9FF944808F0EBFF40
:107000000028FAD1914808F0F0FF904808F0F2FF0C
:107010000028FAD107B000BD80B501000723012286
:10702000C9B28A4808F0FDFF0121884808F0ECFF4A
:107030000221864809F068F80028F9D0834809F051
:1070400055F802BD38B500240025002507E00120D1
:10705000FFF7E2FF04190A2004F024FA6D1CEDB2D8
:10706000052DF4DB0520B4FBF0F4200080B232BD26
:1070700080B50020ADF800006B48007801280ED1E3
:1070800000206949087000206649A1F8010000202D
:1070900064490872FFF7D6FF6D49088094E06148A3
:1070A000B0F80100401C5F49A1F801005D48B0F84C
:1070B00001000328C0F28880FFF7C4FFADF800008C
:1070C0005848007A002805D002285DD02DD3032827
:1070D00074D076E05E480088C838BDF80010884259
:1070E00012DBBDF800004F4948604E48B0F801007F
:1070F0004C49A1F8090002204A4908704948007A21
:10710000401C484908720FE0BDF80000002804D078
:107110004448B0F80100FA2806DB03204149087012
:1071200003204049087200BF4EE0BDF800003D4911
:107130004968884227D23B48B0F801103948B0F876
:107140000900091A03291EDB36484168BDF8000012
:10715000091AADF80010BDF8000040F2B1418842B4
:107160000BDA3048B0F801002E49A1F809002D488B
:10717000007A401C2B49087205E003202949087059
:107180000320284908721FE02648B0F8011025485E
:10719000B0F80900091AC8290FDBBDF80000322831
:1071A00003DB01201F49087002E003201D4908701D
:1071B0001C48007A401C1B49087205E000F062F888
:1071C00002E000201749087201BD80B50020154972
:1071D000887304F015F91349C1F80F0001BD0020B0
:1071E0001049C8727047C0B2042802DA0D49C87548
:1071F00002E003200B49C87503200A49C872704792
:107200000848C07A032803D00648C07A022801D172
:10721000012000E00020C0B2704700009C3B00202D
:107220009A3C0020403B0020823C00201408014092
:107230001008014000440040140C0140100C0140B3
:10724000000801407438002000080040002401407C
:10725000783C002080B50020DFF804180872002078
:10726000DFF8FC1708700121DFF8F80701F0E8F9F2
:1072700001BD80B500F05AFB01BD5520DFF8E817CD
:10728000087070470020DFF8E01708707047DFF8DB
:10729000D8070078704780B50021010089B23C29E9
:1072A00012DBDFF8C80701800120DFF8C017087281
:1072B0000120DFF8BC170870FFF7DFFF04F0A0F82B
:1072C000DFF8B017C1F8130001BD80B50020082118
:1072D000DFF8900701F011FA00280ED0DFF88407DC
:1072E00001F005FAD221DFF8902711800021DFF8A4
:1072F0008C27118080B2FFF7CEFF0321DFF86407EF
:1073000001F00FFA01BD18B400210091052209E037
:10731000009BD2B2845C911EC9B2C9008C40E318B4
:107320000093521ED2B2022AF2DA0099DFF85027F7
:10733000B1FBF2F302FB1311427812EB012200922F
:107340000099DFF83C27B1FBF2F302FB1311007840
:1073500010EB012000900098DFF82417B0FBF1F249
:1073600001FB120080B212BC70472DE9F04105000C
:107370000C001600DBB2002B0AD00020DFF8041747
:10738000087019210022DFF8FC76380001F070FD4A
:10739000E4B2002C00F01E81002700E07F1C3800C2
:1073A000DFF8E0160978C0B288420BD20622290025
:1073B000DFF8D006FFB200EBC700401CFCF740FD31
:1073C0000028EBD13800DFF8BC160978C0B288423B
:1073D00037D3DFF8B0060778DFF8A8060078401C3E
:1073E000DFF8A0160870DFF89C06007804281CDB84
:1073F0000320DFF890160870FF210027002011E01D
:10740000DFF88026C0B202EBC002127A0B00DBB2BA
:107410009A4206D2DFF86C16C0B201EBC001097ABD
:107420000700401CC0B20328EADB08210022DFF875
:107430005406FFB200EBC70010F10108404601F00E
:1074400017FD06222900DFF83C06FFB200EBC7005B
:10745000451C2800FCF7A0FF3100C9B2DFF8240664
:10746000FFB200EBC700007AFCF777FDDFF81416D7
:10747000FFB201EBC7010872DFF80806FFB200EBAC
:10748000C700C07964F30100DFF8F815FFB201EB23
:10749000C701C871DFF8EC05FFB200EBC700C07987
:1074A000001DDFF8E015FFB201EBC701C871DFF87E
:1074B000D405FFB200EBC700C079C0B28008C0B2EB
:1074C00006284CDB002743E0DFF8B805FFB200EBED
:1074D000C700C07910F00300DFF8A815FFB201EB78
:1074E000C701C8710020DFF89C15FFB201EBC7018E
:1074F000087217E0DFF88C05FFB200EBC700C07917
:10750000C0B28008C0B20328DEDBDFF87805FFB226
:1075100000EBC700C0790838DFF86815FFB201EB4F
:10752000C701C871DFF85C05FFB200EBC700007A45
:107530000B280CDBDFF84C05FFB200EBC700007A2C
:10754000401FDFF84015FFB201EBC70108727F1C36
:107550003800DFF830150978C0B28842CAD300215C
:107560000027002011E00A00DFF81835C0B203EB55
:10757000C0031B7AD2B29A4206D2DFF80815C0B215
:1075800001EBC001097A0700401C0200DFF8F43467
:107590001B78D2B29A42E6D3DFF8E804FFB200EBE0
:1075A000C700401CFFF7AFFEDFF8DC14087080B2A4
:1075B000000ADFF8D4144870DFF8C804FFB200EB0B
:1075C000C700C079DFF8C014897860F30101DFF8E3
:1075D000B8048170BDE8F08110B584B00100DFF817
:1075E0008004DFF87C24127A00EB42000183DFF88C
:1075F0007004007A401CDFF868241072DFF8600421
:10760000007A282803DB0020DFF854241072DFF80A
:1076100050040078002805D0022800F01081C0F046
:10762000CF807FE1DFF83804007A052290FBF2F387
:1076300002FB130000281AD1DFF8240480880A0016
:1076400092B290420AD289B2DFF814048088081AF4
:10765000152803DBDFF808048188143189B2DFF8CC
:1076600000048088FCF793FCDFF8F413888028215D
:10767000DFF81804FCF754FC8DF80000DFF8E00395
:107680009DF8001000EB4100008BADF804000020D5
:10769000DFF8CC139DF8002001EB4201088328217C
:1076A000DFF8E803FCF73CFC8DF80100DFF8B003DD
:1076B0009DF8011000EB4100008BADF80600DFF8EB
:1076C000A0039DF8011000EB410000210183282157
:1076D000DFF8B803FCF724FC8DF80200BDF80400C5
:1076E000DFF87C139DF8002001EB42010883DFF8EE
:1076F00070039DF8011000EB4100BDF806100183F6
:10770000DFF85C03007A9DF8001088420ED0DFF8A5
:107710005003007A9DF80110884207D0DFF840033B
:10772000007A9DF80210884240F0FF8003216846ED
:10773000FCF742FCDFF82803007A9DF8011088422C
:107740000DD19DF800409DF801008DF800009DF8D6
:1077500002008DF8010028348DF8024014E0DFF8B3
:107760000003007A9DF8021088420DD19DF8024076
:107770009DF8010028308DF802009DF800002830A7
:107780008DF801008DF800409DF801109DF8000073
:10779000091A0F2940F0C9809DF802109DF80100D8
:1077A000091A142940F0C1802720AD490872002031
:1077B000AB494873AA480078401CA9490870B4E056
:1077C000A748007A1428C0F2B0801421AF48FCF713
:1077D000A7FB0400E4B2042C03DA0020A0490870DF
:1077E000A3E0241F9E48407B002808D101209C492B
:1077F00048739B48847300209949087295E0984823
:10780000807B50EA0410964988739548807BF12864
:1078100003D000209249087087E000209049087248
:1078200000208F49087300208D49C88000208C49B2
:1078300048738B480078401C8949087075E0884877
:10784000007A142871DB00208549087214218F48C2
:10785000FCF766FB0400E4B2042C03DA0020804944
:10786000087062E07E48E4B200EB4400018B7C4883
:10787000C088FCF78CFB7A49C880241F7848407B7D
:10788000002805D1012076494873754884734CE07F
:107890000020734948737248807B50EA0410704995
:1078A00088736F48807B6E496D4A127B1144C873A0
:1078B0006B48007B401C6A4908736948007B0828B4
:1078C00033DB00206649087007217148FCF7CDFBC7
:1078D00004006348807DE4B2A04226D16048407D28
:1078E000C0F380045E48C1880A204143192091FBFF
:1078F000F0F0ADF80400BDF80400FF2802DBFF2023
:10790000ADF80400BDF80400554948722300DBB20D
:107910005348427A5248417D11F003015C48FFF719
:1079200024FD02E000204E4908701FBD80B54F487D
:10793000007A002832D000204C4908724B48B0F938
:1079400000104A48B0F90200081A00B2002801D518
:1079500000B2404280B2FFF73FFE444800884349EE
:1079600048804C494148B0F90000081A00B200288C
:1079700001D500B2404200B240F2E93188420DD256
:107980003A48018839488088FCF701FB37498880EC
:107990003648808880B240083449C88001BD38B577
:1079A0000400384800782070641C002523E006227B
:1079B0003448EDB200EBC500411C2000FCF7ECFCA4
:1079C000A41D3048EDB200EBC500C079C0B28008FC
:1079D0002C49EDB201EBC501C97911F0030151EA5F
:1079E00080012170641C2748EDB200EBC500007ACD
:1079F0002070641C6D1C280022490978C0B288429E
:107A0000D5D3EDB2E800401CC0B232BD1E4840786C
:107A100000021D490978084380B270471A488078EF
:107A200010F00300704710B519210022154C2000FA
:107A300001F01EFA10BD10B503210022124C2000E7
:107A400001F016FA10BD02780F4B1A7040780E4AFA
:107A500050700D48807861F301000B4988707047C1
:107A6000FC38002000040040833C0020D03B002074
:107A7000823C0020403B00202C04004024040040B5
:107A8000CD0D0100243B0020143C002014390020BF
:107A90000B3900204FC3FFFFFF20DFF8D417C87653
:107AA000FF20DFF8CC17087700210DE0DFF8C027B2
:107AB000C0B202EB4002C9B20A44FF235377401C14
:107AC000C0B20228F2DB491CC9B2022901DA002047
:107AD000F6E77047DFF8980740787047DFF89007BF
:107AE0008078DFF88C174870DFF88407807890F092
